:020000040000fa
:080000000002040000000000f2
:020000040000fa
:10040000ef8620000e7f24000e018800000000000f
:10041000000020000000e000020032000001200087
:10042000200288000c000700205c20000100200052
:1004300011000700000020000000e0000200320070
:100440000000020000000000c003020000000000e5
:100450000040da000000fe004440a9002000200017
:100460000000e0000300320000002000a00188002e
:100470004440a80000000600910188008000780038
:100480000000eb0015003700e280400032a0b4000d
:100490009101ba00e280400032a0b4009102ba009b
:1004a000e280400032a0b4000002eb00472bde00e7
:1004b000f507b200602ce10004003a000059eb009f
:1004c0008301e900fdff3e00040037006128e100e0
:1004d000010032000082eb00040007001101ba00a5
:1004e0000200e000e8ff3a00000006003159ba00bf
:1004f0008301e9000c0032002159ba008301e900b0
:10050000080032000400e00003003a00e2804000ee
:1005100032a0b400f5ff370011d9ba008301e90019
:10052000faff3a008100e800e180400032a0b40008
:1005300000000600849fbe003400f8000400200084
:10054000a40188008b40a90004802000050f8000d2
:1005500005026200020032005c28ec000100370056
:100560005c28ed003400f9004f02be000040060098
:10057000801f7800849fbe00869fbe003400f80074
:1005800000002000a00188008580a9000420200030
:10059000151180000502620014003a000641800037
:1005a00014418000840f5300100032000720200007
:1005b000144180000580200065427a000482fb001f
:1005c00024118800144180000402e8007f026200c8
:1005d00014418800151180000582630003003a0071
:1005e00014418000860f5200f1ff3a003400f900f8
:1005f0004f03be004f02be004f00780000400600cf
:10060000801f7800849fbe00869fbe003400f800e3
:1006100000002000a00188002642800034428000b3
:100620008560a9002202ab0013003a0018003700d1
:10063000e00f52000c0032000402e9002542800065
:10064000371180004682200007f37a00254280009f
:100650008502e800ff826200254288002202ab008a
:10066000f3ff3a000a003700341180002202ab0089
:10067000fdff3a0006003700040253000482ea003e
:100680007f026200f8ff32000402e900ebff37004e
:100690002222ab00020032008560a9002222a900bc
:1006a0003400f9004f03be004f02be004f00780037
:1006b000004006003600f800809fbe00829fbe000a
:1006c000849fbe00869fbe00881f78003400f8001b
:1006d00000002000a00188008460a900b4428000ce
:1006e000e00f520004003a005828a800140020002f
:1006f000b4428800050037000402e800b4428800d4
:10070000ea0f520001003a005628ef000000eb000b
:10071000d80007008460a9008460ab0010003a0094
:1007200042a0a80042c0a9005a28ab000c003a0021
:100730005828ab00080032005a28a80018002000f2
:100740005828a90008007800ca0007005828ab0004
:10075000fbff3a005a28a90042c0a80042a0a90005
:100760003400f9004f0478004f03be004f02be0072
:100770004f01be004f00be003600f90000400600e9
:10078000143a80004c22de00610262001800320040
:10079000143a80004c22de006402620014003a0029
:1007a000a50920000003eb00840720003774200017
:1007b000844b7800854b7800864b780075052000c7
:1007c000160020006404200027742000844b780069
:1007d000854b7800864b7800000000000000000088
:1007e00004002700163a800086026200fdff3a00ee
:1007f00064032000343a880054002000243a880022
:1008000034002000a609200085072000377420004e
:10081000854b7800864b7800844b78007605200065
:10082000170020006504200020742000054878008f
:1008300006487800074878000501200065198800ff
:10084000d5002000c5348800a5b02000e53488001c
:100850005501200025358800a4368800f4f72f00c4
:1008600004168800f4ff2b0044168800f4fe2f00c5
:10087000841688000500270004002300173a800032
:1008800007836200840f5300fcff3a00040220003b
:10089000163a800086026200fdff32007e000700eb
:1008a0002405800004c0a10004d0a00004e0a10041
:1008b000240588008460a9009460a800f4c329007e
:1008c000140888000402e9000408880004002800d5
:1008d00024088800ffff37000040da000000fe0017
:020000040000fa
:0200000401f009
:04000c00faff0000f7
:020000040000fa
:0200000401f009
:0400100078ff000075
:020000040000fa
:0200000401f009
:040014007fff00006a
:020000040000fa
:0200000401f009
:04001800fcff0000e9
:020000040000fa
:0200000401f009
:04001c00ddff000004
:020000040000fa
:100008006c0400006c0400006c0400006c04000028
:100018006c0400006c0400006c0400006c04000018
:100028006c0400006c0400006c0400005a0300001b
:100038006c0400006c0400006c0400006c040000f8
:100048006c0400006c0400006c0400000003000055
:10005800b80200006c0400006c0400006c0400008e
:100068006c0400006c0400006c0400006c040000c8
:100078006c0400006c0400006c0400006c040000b8
:100088006c0400006c0400006c0400006c040000a8
:100098006c0400006c0400006c0400006c04000098
:1000a8006c0400006c0400006c0400006c04000088
:1000b8006c0400006c0400006c0400006c04000078
:1000c8006c0400006c0400006c0400006c04000068
:1000d8006c0400006c0400006c0400006c04000058
:1000e8006c0400006c0400006c0400006c04000048
:1000f8006c0400006c0400006c0400006c04000038
:100108006c0400006c0400009a0200006c040000fb
:100118006c0400006c0400006c0400006c04000017
:100128006c0400006c0400006c0400006c04000007
:100138006c0400006c0400006c0400006c040000f7
:100148006c0400006c0400006c0400006c040000e7
:100158006c0400006c0400006c0400006c040000d7
:100168006c0400006c0400006c0400006c040000c7
:100178006c0400006c0400006c0400006c040000b7
:100188006c0400006c0400006c0400006c040000a7
:100198006c0400006c0400006c0400006c04000097
:1001a8006c0400006c0400006c0400006c04000087
:1001b8006c0400006c0400006c0400006c04000077
:1001c8006c0400006c0400006c0400006c04000067
:1001d8006c0400006c0400006c0400006c04000057
:1001e8006c0400006c0400006c0400006c04000047
:0801f8006c0400006c0400001f
:020000040000fa
:100208006c0400006c0400006c0400006c04000026
:100218006c0400006c0400006c0400006c04000016
:100228006c0400006c0400006c0400005a03000019
:100238006c0400006c0400006c0400006c040000f6
:100248006c0400006c0400006c0400000003000053
:10025800b80200006c0400006c0400006c0400008c
:100268006c0400006c0400006c0400006c040000c6
:100278006c0400006c0400006c0400006c040000b6
:100288006c0400006c0400006c0400006c040000a6
:100298006c0400006c0400006c0400006c04000096
:1002a8006c0400006c0400006c0400006c04000086
:1002b8006c0400006c0400006c0400006c04000076
:1002c8006c0400006c0400006c0400006c04000066
:1002d8006c0400006c0400006c0400006c04000056
:1002e8006c0400006c0400006c0400006c04000046
:1002f8006c0400006c0400006c0400006c04000036
:100308006c0400006c0400009a0200006c040000f9
:100318006c0400006c0400006c0400006c04000015
:100328006c0400006c0400006c0400006c04000005
:100338006c0400006c0400006c0400006c040000f5
:100348006c0400006c0400006c0400006c040000e5
:100358006c0400006c0400006c0400006c040000d5
:100368006c0400006c0400006c0400006c040000c5
:100378006c0400006c0400006c0400006c040000b5
:100388006c0400006c0400006c0400006c040000a5
:100398006c0400006c0400006c0400006c04000095
:1003a8006c0400006c0400006c0400006c04000085
:1003b8006c0400006c0400006c0400006c04000075
:1003c8006c0400006c0400006c0400006c04000065
:1003d8006c0400006c0400006c0400006c04000055
:1003e8006c0400006c0400006c0400006c04000045
:0803f8006c0400006c0400001d
:020000040000fa
:0408e0004e080000be
:020000040000fa
:1008e400889fbe005c08f8004808f900210f8000ca
:1008f40051428800064180001441800004025300e4
:100904000482ea007f026200e60f52000100340014
:100914006400200001417800c808de0048428000dd
:10092400884478004844de0050c1b3008003eb00e3
:1009340053c0b30095428000e08f520003003200a0
:10094400e18f520023003a00110037006302520085
:10095400200033000580200083727b000603e8003a
:100964007f03630089727b000603e8007f03630052
:1009740088727b000603e8007f0363005228ec00c2
:1009840095428000e18f52000100360097428800b2
:10099400630252000f0033000580200080727b0048
:1009a4000603e8007f03630082727b000603e8000d
:1009b4007f03630081727b000603e8007f0363000a
:1009c4005228ec0095428000e18f5200010036006d
:1009d40097428800e00f5200d6ff3c000641880091
:1009e400141180004822de00610262004c22dd0006
:1009f400f5ff2e0026048000868262000502720044
:100a0400240488004f04be00000006005416800031
:100a14004222de006142620015c0b300d684200089
:100a240016437800844f530001003e008042eb00df
:100a3400c084200090c26a00618362004733dd00f5
:100a4400f7f72f00201680008083630007037300ec
:100a540026168800050078004ce8b70004007800ea
:100a64004de8b700c45d2000b40e88000000060005
:100a7400e00f500003003200e10f500004003a0080
:100a84000200370096ff070001003700dfff070070
:100a9400000006004828ef004a28ef008002eb001f
:100aa4006542880004012000440e88006400200090
:100ab400540e8800650e880016002000760e88000b
:100ac40064082000840e8800f47c2000240e880032
:100ad400840c2000340e880004002800040e8800d2
:100ae400f43f2000340f8800041f2000140f8800f6
:100af40004d02000040f8800040680000480a000b5
:100b04000490a10004a0a000040688008b40a90062
:100b14009b40a8006405200044118800840028003c
:100b24000411880004402200141188001541880033
:100b340005418800540580000400a0000410a100b1
:100b44000420a100540588008580a9009580a80090
:100b540035428800254288004405800004c0a00076
:100b640004d0a10004e0a100440588008560a90028
:100b74009560a800060078004ce8b7000000060065
:020000040000fa
:100b84005c080000020000000000000000080000f3
:100b940048000000000000005408000008000000a5
:100ba40000000000480800000c00000000000000e5
:040bb400000000003d
:00000001FF
