:020000040000fa
:080000000002040000000000f2
:020000040000fa
:10040000cfa420000e7f24000e0188000000000011
:10041000000020000000e000020032000001200087
:10042000200288000c000700a06a200001002000c4
:1004300011000700000020000000e0000200320070
:100440000000020000000000740402000000000030
:100450000040da000000fe004440a9002000200017
:100460000000e0000300320000002000a00188002e
:100470004440a80000000600910188008000780038
:100480000000eb0015003700e280400032a0b4000d
:100490009101ba00e280400032a0b4009102ba009b
:1004a000e280400032a0b4000002eb00472bde00e7
:1004b000f507b200602ce10004003a000059eb009f
:1004c0008301e900fdff3e00040037006128e100e0
:1004d000010032000082eb00040007001101ba00a5
:1004e0000200e000e8ff3a00000006003159ba00bf
:1004f0008301e9000c0032002159ba008301e900b0
:10050000080032000400e00003003a00e2804000ee
:1005100032a0b400f5ff370011d9ba008301e90019
:10052000faff3a008100e800e180400032a0b40008
:1005300000000600849fbe003400f8000400200084
:10054000a40188000000fa008580a9000b00370094
:100550001544800004802000048242001442780088
:100560000482fb0024118800144480008402e80007
:10057000f4072000048262001444880015118000f2
:100580000420200004826200e00f520004003a00c0
:100590000544800014448000848f5200ecff3a0030
:1005a0000080fa003400f9004f02be00004006004f
:1005b000849fbe00861f78003400f80004002000ed
:1005c000a40188000400fa00254880003448800017
:1005d00004825200048fea00f40720001e0f62001c
:1005e0008560a9001c0037001e02780004f0a700f7
:1005f0000402ea000402ea004f22de00044278000e
:100600001e0fe900e04f52000c0032002648800027
:1006100034118000844278004488200004024300a2
:10062000054a7800244880008402e800f40720008e
:1006300004826200244888000700370034118000db
:10064000140798001411800061026200e00f52004c
:10065000faff3a00040037001411800061026200c2
:10066000e00f5200e0ff3a001411800062026200c5
:10067000e00f5200020032008560a9002222a9008a
:100680000080fa003400f9004f0378004f02be00ea
:1006900000400600849fbe003400f80004002000e3
:1006a000a40188000000fa0087e0a9000b003700d1
:1006b000554c80008490200004824200144278004f
:1006c0000482fb00a4118800544c80008402e800de
:1006d000f407200004826200544c880095118000c9
:1006e0000420200004826200e00f520004003a005f
:1006f000454c8000544c8000848f5200ecff3a003f
:100700000080fa003400f9004f02be0000400600ed
:10071000849fbe00861f78003400f800040020008b
:10072000a40188000400fa00654d8000744d80002b
:1007300004825200048fea001e0278007f0f6200dc
:1007400087c0a9001b0037001e02780004f0a70034
:100750000402ea000402ea004f22de0004427800ac
:100760001e0fe900e04f52000b003200664d800082
:10077000b411800084427800c49820000402430031
:10078000054a7800644d80000402e8007f026200a0
:10079000644d880007003700b411800014079800ea
:1007a0009411800061026200e00f5200faff3a00eb
:1007b000040037009411800061026200e00f5200d3
:1007c000e1ff3a009411800062026200e00f5200e3
:1007d0000200320087c0a9003222a9000080fa007e
:1007e0003400f9004f0378004f02be0000400600bd
:1007f0003600f800809fbe00829fbe00849fbe002e
:10080000869fbe003400f80000002000a001880090
:100810000000fa008460a900b4518000e00f52008b
:1008200001003a00382aa800b45180000402e80010
:10083000b4518800b4518000ea0f520002003a001f
:100840000002eb00b45188000000eb00f400070048
:100850008460a9002404800068026200e00f520056
:1008600016003a0042a0a80042c0a900d45180005e
:1008700062026200e00f520012003a00c451800090
:1008800062026200e00f5200090032003a2aa8001a
:10089000382aa90010002000e1000700c4518000a0
:1008a00062026200e00f5200f9ff3a003a2aa90002
:1008b00042c0a80042a0a9000300370000000000c9
:1008c00001003700000000000080fa003400f90049
:1008d0004f03be004f02be004f01be004f00be00de
:1008e0003600f900004006000000fa00143a8000cb
:1008f0004c22de00674262000482fb00610262005b
:1009000004427800e04f52001d003200143a80008b
:100910004c22de00674262000482fb006402620037
:10092000e00f520016003a000003eb00840720009d
:10093000a509200037742000844b7800854b78008f
:10094000864b780016002000640420007505200006
:1009500027742000844b7800854b7800864b780004
:10096000000000000000000000000000153a8000b8
:100970000400270004826200e00f5200fbff3a00ef
:10098000e4092000343a880094012000243a8800c9
:100990003600200084072000a509200037742000bd
:1009a000844b7800854b7800864b78001600200039
:1009b000640420007505200027742000844b780013
:1009c000854b7800864b78000002eb0064198800a4
:1009d000e4002000243588005401200034358800cc
:1009e000043020006436880054002000a4368800bb
:1009f000f4ff2d0044168800f4fe2f0084168800b2
:100a000000000000153a8000040027008482620084
:100a100004002300848f5200faff3a000000000017
:100a2000153a80000402200004826200e00f5200a8
:100a3000fbff3200880007002405800004c0a100ed
:100a400004d0a00004e0a100240588008460a9006f
:100a50009460a800f4c3290014088800e4c32900a6
:100a6000040888000400280024088800ffff3700dd
:100a70000040da000000fe000002780002003700ab
:100a8000015a78000201e900e00f5100fcff3a0032
:040a9000000006005c
:020000040000fa
:0200000401f009
:04000c00faff0000f7
:020000040000fa
:0200000401f009
:0400100078ff000075
:020000040000fa
:0200000401f009
:040014007fff00006a
:020000040000fa
:0200000401f009
:04001800fcff0000e9
:020000040000fa
:0200000401f009
:04001c00ddff000004
:020000040000fa
:1000080038050000380500003805000038050000f4
:1000180038050000380500003805000038050000e4
:10002800380500003805000038050000f803000016
:1000380038050000380500003805000038050000c4
:10004800380500003805000038050000d802000017
:100058009a02000038050000380500003805000045
:100068003805000038050000380500003805000094
:100078003805000038050000380500003805000084
:100088003805000038050000380500003805000074
:100098003805000038050000880300004a03000006
:1000a8003805000038050000380500003805000054
:1000b8003805000038050000380500003805000044
:1000c8003805000038050000380500003805000034
:1000d8003805000038050000380500003805000024
:1000e8003805000038050000380500003805000014
:1000f8003805000038050000380500003805000004
:1001080038050000380500003805000038050000f3
:1001180038050000380500003805000038050000e3
:1001280038050000380500003805000038050000d3
:1001380038050000380500003805000038050000c3
:1001480038050000380500003805000038050000b3
:1001580038050000380500003805000038050000a3
:100168003805000038050000380500003805000093
:100178003805000038050000380500003805000083
:100188003805000038050000380500003805000073
:100198003805000038050000380500003805000063
:1001a8003805000038050000380500003805000053
:1001b8003805000038050000380500003805000043
:1001c8003805000038050000380500003805000033
:1001d8003805000038050000380500003805000023
:1001e8003805000038050000380500003805000013
:0801f800380500003805000085
:020000040000fa
:1002080038050000380500003805000038050000f2
:1002180038050000380500003805000038050000e2
:10022800380500003805000038050000f803000014
:1002380038050000380500003805000038050000c2
:10024800380500003805000038050000d802000015
:100258009a02000038050000380500003805000043
:100268003805000038050000380500003805000092
:100278003805000038050000380500003805000082
:100288003805000038050000380500003805000072
:100298003805000038050000880300004a03000004
:1002a8003805000038050000380500003805000052
:1002b8003805000038050000380500003805000042
:1002c8003805000038050000380500003805000032
:1002d8003805000038050000380500003805000022
:1002e8003805000038050000380500003805000012
:1002f8003805000038050000380500003805000002
:1003080038050000380500003805000038050000f1
:1003180038050000380500003805000038050000e1
:1003280038050000380500003805000038050000d1
:1003380038050000380500003805000038050000c1
:1003480038050000380500003805000038050000b1
:1003580038050000380500003805000038050000a1
:100368003805000038050000380500003805000091
:100378003805000038050000380500003805000081
:100388003805000038050000380500003805000071
:100398003805000038050000380500003805000061
:1003a8003805000038050000380500003805000051
:1003b8003805000038050000380500003805000041
:1003c8003805000038050000380500003805000031
:1003d8003805000038050000380500003805000021
:1003e8003805000038050000380500003805000011
:0803f800380500003805000083
:020000040000fa
:040a9400300a000024
:020000040000fa
:100a98000000fa000080fa00000006000a00fa00d0
:100aa800049b2000340798000002eb00040f780034
:100ab800120037002548800034488000848f520097
:100ac800130032001e027800be0290000482420029
:100ad800364880004588200085024300954278000a
:100ae800054a7800344880008402e800f4072000b2
:100af80004826200344888001e0fe800f4072000d2
:100b08009e027800848f5200eaff3400010037000b
:100b1800000000001e027800be029000048242001d
:100b28008042eb00054a7800454c8000544c800018
:100b380004835200060278000482ea008582ea00f3
:100b4800140798009e029000f407200004826200b7
:100b580014079800049b2000440798000002eb004b
:100b6800240798001c0037001e029000e00f520076
:100b78001d0032002e029000ce0290000482420036
:100b880014427800e04f520017003200464c8000b3
:100b98002e029000ce029000048242009442780017
:100ba8008490200004024300054a7800444c8000e9
:100bb8008402e800f407200004826200444c8800a4
:100bc8001e0290000402e900140798002e0290000b
:100bd8000402e80024079800ae029000f407200001
:100be800848f5200e0ff3400941180004822de0018
:100bf800614262000482fb004f22dd00360480005f
:100c0800f5ff27008502630005027200340488009e
:100c18000080fa00000006000200fa00000f7800c9
:100c28001e027800e00f520003003200e10f52006c
:100c3800030032000400370095ff07000200370068
:100c480096ff0700000000000080fa000000060080
:100c58000000fa00020820008000eb00009b200042
:100c680083ff070064052000c41188008400280061
:100c78008411880004402200941188000002eb00cf
:100c8800544c88000002eb00444c88009405800016
:100c980004c0a00004d0a10004e0a10094058800cd
:100ca80087e0a90097e0a8000002eb00744d8800d7
:100cb8000002eb00644d8800940580000480a000c9
:100cc8000490a10004a0a1009405880087c0a90091
:100cd80097c0a800640520004411880084002800fb
:100ce8000411880004402200141188000002eb005f
:100cf800144488000002eb00044488005405800076
:100d08000400a0000410a1000420a10054058800dc
:100d18008580a9009580a8000002eb00344888006f
:100d28000002eb00244888004405800004c0a000ad
:100d380004d0a00004e0a100440588008560a90053
:0c0d48009560a8000080fa000000060082
:020000040000fa
:100d5400000800000801000000000000080900006d
:100d6400a800000000000000340a00000800000091
:100d740000000000b0090000840000000000000032
:040d8400000000006b
:00000001FF
