:020000040000fa
:080000000002040000000000f2
:020000040000fa
:100400008f8b20000e7f24000e018800000000006a
:10041000000020000000e000020032000001200087
:10042000200288000c000700e07d20000100200071
:1004300011000700000020000000e0000200320070
:1004400000000200000000000c0502000000000097
:100450000040da000000fe004440a9002000200017
:100460000000e0000300320000002000a00188002e
:100470004440a80000000600910188008000780038
:100480000000eb0015003700e280400032a0b4000d
:100490009101ba00e280400032a0b4009102ba009b
:1004a000e280400032a0b4000002eb00472bde00e7
:1004b000f507b200602ce10004003a000059eb009f
:1004c0008301e900fdff3e00040037006128e100e0
:1004d000010032000082eb00040007001101ba00a5
:1004e0000200e000e8ff3a00000006003159ba00bf
:1004f0008301e9000c0032002159ba008301e900b0
:10050000080032000400e00003003a00e2804000ee
:1005100032a0b400f5ff370011d9ba008301e90019
:10052000faff3a008100e800e180400032a0b40008
:1005300000000600849fbe003400f8000400200084
:10054000a40188000000fa008580a9000a00370095
:10055000154180000480200004824200144278008b
:100560000482fb0024118800144180000402e8008a
:100570007f026200144188001511800004202000d1
:1005800004826200e00f520004003a00054180003e
:1005900014418000848f5200edff3a000080fa0081
:1005a0003400f9004f02be0000400600849fbe00e8
:1005b000861f78003400f80004002000a4018800a1
:1005c0000400fa0025428000344280000482520078
:1005d000048fea001e0278007f0f62008560a90088
:1005e0001b0037001e02780004f0a7000402ea0096
:1005f0000402ea004f22de00044278001e0fe900e8
:10060000e04f52000b00320026428000341180007f
:10061000844278004482200004024300054a7800a6
:10062000244280000402e8007f0262002442880025
:10063000070037003411800014079800141180005f
:1006400061026200e00f5200faff3a000400370036
:100650001411800061026200e00f5200e1ff3a00d5
:100660001411800062026200e00f520002003200aa
:100670008560a9002222a9000080fa003400f90058
:100680004f0378004f02be0000400600849fbe006a
:100690003400f80004002000a40188000000fa00e3
:1006a00087e0a9000a0037005543800084842000b9
:1006b00004824200144278000482fb00a4118800e6
:1006c000544380000402e8007f0262005443880023
:1006d000951180000420200004826200e00f520087
:1006e00004003a004543800054438000848f520048
:1006f000edff3a000080fa003400f9004f02be001e
:1007000000400600849fbe00861f78003400f80079
:1007100004002000a40188000400fa006544800061
:100720007444800004825200048fea001e027800a4
:100730007f0f620087c0a9001b0037001e027800ef
:1007400004f0a7000402ea000402ea004f22de00df
:10075000044278001e0fe900e04f52000b00320007
:1007600066448000b411800084427800c486200072
:1007700004024300054a7800644480000402e80053
:100780007f0262006444880007003700b4118000d3
:10079000140798009411800061026200e00f52007b
:1007a000faff3a00040037009411800061026200f1
:1007b000e00f5200e1ff3a009411800062026200f3
:1007c000e00f52000200320087c0a9003222a900c7
:1007d0000080fa003400f9004f0378004f02be0099
:1007e000004006003600f800809fbe00829fbe00d9
:1007f000849fbe00869fbe003400f80000002000e9
:10080000a00188000000fa008460a900048920008b
:1008100014029000e00f520001003a009828a8004e
:100820000489200024029000e00f520001003a00e9
:100830009848a8000489200034029000e00f52007c
:1008400001003a009868a800048920001402900072
:100850008402e80004892000150298000489200021
:1008600014029000ea0f520003003a0004892000ad
:100870008002eb00150298000489200024029000f9
:100880008402e800048920002502980004892000e1
:10089000a402900024032000848f520003003a0039
:1008a000048920008002eb002502980004892000c2
:1008b000340290008402e800048920003502980088
:1008c00004892000b402900044062000848f520066
:1008d00003003a00048920008002eb0035029800f2
:1008e0000000eb004c0107008460a9002404800094
:1008f00068026200e00f520038003a0042a0a800ef
:1009000042c0a900d444800062026200e00f52009d
:1009100034003a00c444800062026200e00f5200da
:10092000090032009a28a8009828a9001000200089
:1009300039010700c444800062026200e00f5200e7
:10094000f9ff3a009a28a900d444800064026200aa
:10095000e00f520025003a00c444800064026200a7
:10096000e00f5200090032009a48a8009848a900f8
:100970002000200028010700c444800064026200b7
:10098000e00f5200f9ff3a009a48a900d4448000d1
:1009900068026200e00f520016003a00c444800072
:1009a00068026200e00f5200090032009a68a80055
:1009b0009868a9003000200017010700c444800097
:1009c00068026200e00f5200f9ff3a009a68a9003d
:1009d00042c0a80042a0a9000700370000000000a4
:1009e0000500370000000000030037000000000091
:1009f00001003700000000000080fa003400f90018
:100a00004f03be004f02be004f01be004f00be00ac
:100a10003600f900004006000000fa00143a800099
:100a20004c22de00674262000482fb006102620029
:100a300004427800e04f52001d003200143a80005a
:100a40004c22de00674262000482fb006402620006
:100a5000e00f520016003a000003eb00840720006c
:100a6000a509200037742000844b7800854b78005e
:100a7000864b7800160020006404200075052000d5
:100a800027742000844b7800854b7800864b7800d3
:100a9000000000000000000000000000153a800087
:100aa0000400270004826200e00f5200fbff3a00be
:100ab000e4092000343a880094012000243a880098
:100ac0003600200084072000a5092000377420008c
:100ad000844b7800854b7800864b78001600200008
:100ae000640420007505200027742000844b7800e2
:100af000854b7800864b78000002eb006419880073
:100b0000e40020002435880054012000343588009a
:100b1000043020006436880054002000a436880089
:100b2000f47f2c0044168800f4ee2f008416880011
:100b300000000000153a8000040027008482620053
:100b400004002300848f5200faff3a0000000000e6
:100b5000153a80000402200004826200e00f520077
:100b6000fbff3200c50007002405800004c0a1007f
:100b700004d0a00004e0a100240588008460a9003e
:100b80009460a800f4c3290014088800e4c3290075
:100b9000040888000400280024088800ffff3700ac
:100ba0000040da000000fe0000027800020037007a
:100bb000015a78000201e900e00f5100fcff3a0001
:040bc000000006002b
:020000040000fa
:0200000401f009
:04000c00faff0000f7
:020000040000fa
:0200000401f009
:0400100078ff000075
:020000040000fa
:0200000401f009
:040014007fff00006a
:020000040000fa
:0200000401f009
:04001800fcff0000e9
:020000040000fa
:0200000401f009
:04001c00ddff000004
:020000040000fa
:10000800d0050000d0050000d0050000d005000094
:10001800d0050000d0050000d0050000d005000084
:10002800d0050000d0050000d0050000f203000054
:10003800d0050000d0050000d0050000d005000064
:10004800d0050000d0050000d0050000d602000051
:100058009a020000d0050000d0050000d00500007d
:10006800d0050000d0050000d0050000d005000034
:10007800d0050000d0050000d0050000d005000024
:10008800d0050000d0050000d0050000d005000014
:10009800d0050000d00500008203000046030000e0
:1000a800d0050000d0050000d0050000d0050000f4
:1000b800d0050000d0050000d0050000d0050000e4
:1000c800d0050000d0050000d0050000d0050000d4
:1000d800d0050000d0050000d0050000d0050000c4
:1000e800d0050000d0050000d0050000d0050000b4
:1000f800d0050000d0050000d0050000d0050000a4
:10010800d0050000d0050000d0050000d005000093
:10011800d0050000d0050000d0050000d005000083
:10012800d0050000d0050000d0050000d005000073
:10013800d0050000d0050000d0050000d005000063
:10014800d0050000d0050000d0050000d005000053
:10015800d0050000d0050000d0050000d005000043
:10016800d0050000d0050000d0050000d005000033
:10017800d0050000d0050000d0050000d005000023
:10018800d0050000d0050000d0050000d005000013
:10019800d0050000d0050000d0050000d005000003
:1001a800d0050000d0050000d0050000d0050000f3
:1001b800d0050000d0050000d0050000d0050000e3
:1001c800d0050000d0050000d0050000d0050000d3
:1001d800d0050000d0050000d0050000d0050000c3
:1001e800d0050000d0050000d0050000d0050000b3
:0801f800d0050000d005000055
:020000040000fa
:10020800d0050000d0050000d0050000d005000092
:10021800d0050000d0050000d0050000d005000082
:10022800d0050000d0050000d0050000f203000052
:10023800d0050000d0050000d0050000d005000062
:10024800d0050000d0050000d0050000d60200004f
:100258009a020000d0050000d0050000d00500007b
:10026800d0050000d0050000d0050000d005000032
:10027800d0050000d0050000d0050000d005000022
:10028800d0050000d0050000d0050000d005000012
:10029800d0050000d00500008203000046030000de
:1002a800d0050000d0050000d0050000d0050000f2
:1002b800d0050000d0050000d0050000d0050000e2
:1002c800d0050000d0050000d0050000d0050000d2
:1002d800d0050000d0050000d0050000d0050000c2
:1002e800d0050000d0050000d0050000d0050000b2
:1002f800d0050000d0050000d0050000d0050000a2
:10030800d0050000d0050000d0050000d005000091
:10031800d0050000d0050000d0050000d005000081
:10032800d0050000d0050000d0050000d005000071
:10033800d0050000d0050000d0050000d005000061
:10034800d0050000d0050000d0050000d005000051
:10035800d0050000d0050000d0050000d005000041
:10036800d0050000d0050000d0050000d005000031
:10037800d0050000d0050000d0050000d005000021
:10038800d0050000d0050000d0050000d005000011
:10039800d0050000d0050000d0050000d005000001
:1003a800d0050000d0050000d0050000d0050000f1
:1003b800d0050000d0050000d0050000d0050000e1
:1003c800d0050000d0050000d0050000d0050000d1
:1003d800d0050000d0050000d0050000d0050000c1
:1003e800d0050000d0050000d0050000d0050000b1
:0803f800d0050000d005000053
:020000040000fa
:040bc4009e08000087
:020000040000fa
:100bc8000000fa000080fa00000006000000fa00a9
:100bd800843e2000c40e88000080fa000000060051
:100be8000200fa00541680004822de0061426200ca
:100bf800044f7800941680004722de0061426200ac
:100c08000482fb00610262004b22dd006616800050
:100c1800f57f2f00850263000502720064168800c4
:100c28000080fa00000006000400fa002542800057
:100c380034428000848f5200110032003542800017
:100c48004482200004824200144278000443780061
:100c5800c5892000864a7800344280000402e800f2
:100c68007f02620034428800c48920001442780060
:100c780004437800658a2000864a7800050037001a
:100c8800648a20001442780004437800c589200053
:100c9800864a78006544800074448000848f52003e
:100ca8001100320075448000c4862000048242008e
:100cb8001442780004437800d5892000864a7800d9
:100cc800744480000402e8007f02620074448800d3
:100cd800d48920001442780004437800758a2000e3
:100ce800864a780005003700748a2000144278008c
:100cf80004437800d5892000864a780005418000a1
:100d08001441800004825200048fea001e02780019
:100d18007f0f62001e027800e00f52000b003200c5
:100d280006418000c5892000954278000480200093
:100d380004024300054a7800044180000402e800e8
:100d48007f026200044188001e0fe9001411800030
:100d58004822de00614262000482fb0061026200f8
:100d68004c22dd0026048000f5ff2e00850263007a
:100d78000502720024048800454380005443800023
:100d880004835200060278000482ea008582ea00a1
:100d9800140798001e0290007f0262001407980052
:100da8001e029000e00f52000d0032004643800002
:100db800d5892000954278008484200004024300ed
:100dc800054a7800444380000402e8007f0262007c
:100dd800444388001e0290000402e90014079800aa
:100de800941180004822de00614262000482fb0008
:100df8004f22dd0036048000f5ff270085026300de
:100e080005027200340488000080fa000000060021
:100e18000200fa00000f78001e027800cfa2de0060
:100e28003600200007002000860f5200878f5a00e6
:100e38000d003e0004600100030037000400370085
:100e480005003700060037005dff07000700370080
:100e58005eff07000500370061ff07000300370049
:100e680071ff070001003700000000000080fa0051
:100e7800000006000000fa00220020008000eb00bd
:100e8800c089200046ff0700d502a8000402200000
:100e9800440e880064002000540e88000002eb0015
:100ea800640e880014002000740e880004082000d6
:100eb800840e8800f47c2000240e8800840c200016
:100ec800340e880004002800040e88006405200001
:100ed800c41188008400280084118800044022007e
:100ee800941188000002eb00544388000002eb00d4
:100ef800444388009405800004c0a00004d0a100e9
:100f080004e0a1009405880087e0a90097e0a80004
:100f18000002eb00744488000002eb00644488007f
:100f2800940580000480a0000490a10004a0a10002
:100f38009405880087c0a90097c0a8006405200010
:100f4800441188008400280004118800044022000d
:100f5800141188000002eb00144188000002eb0025
:100f680004418800540580000400a0000410a1007a
:100f78000420a100540588008580a9009580a80058
:100f88000002eb00344288000002eb002442880093
:100f98004405800004c0a00004d0a10004e0a10022
:100fa800440588008560a9009560a8000080fa00c3
:040fb800000006002f
:020000040000fa
:100fbc000008000048000000000000004808000085
:100fcc004800000000000000900800000c00000029
:100fdc00000000009c0800000c0000000000000055
:040fec000000000001
:00000001FF
