:020000040000fa
:080000000002040000000000f2
:020000040000fa
:10040000cf9820000e7f24000e018800000000001d
:10041000000020000000e000020032000001200087
:10042000200288000c000700006a20000100200064
:1004300011000700000020000000e0000200320070
:100440000000020000000000700402000000000034
:100450000040da000000fe004440a9002000200017
:100460000000e0000300320000002000a00188002e
:100470004440a80000000600910188008000780038
:100480000000eb0015003700e280400032a0b4000d
:100490009101ba00e280400032a0b4009102ba009b
:1004a000e280400032a0b4000002eb00472bde00e7
:1004b000f507b200602ce10004003a000059eb009f
:1004c0008301e900fdff3e00040037006128e100e0
:1004d000010032000082eb00040007001101ba00a5
:1004e0000200e000e8ff3a00000006003159ba00bf
:1004f0008301e9000c0032002159ba008301e900b0
:10050000080032000400e00003003a00e2804000ee
:1005100032a0b400f5ff370011d9ba008301e90019
:10052000faff3a008100e800e180400032a0b40008
:1005300000000600849fbe003400f8000400200084
:10054000a40188000000fa008580a9000a00370095
:10055000754a8000c4922000048242001442780050
:100560000482fb0024118800744a80000402e80021
:100570007f026200744a8800151180000420200068
:1005800004826200e00f520004003a00654a8000d5
:10059000744a8000848f5200edff3a000080fa0018
:1005a0003400f9004f02be0000400600849fbe00e8
:1005b000861f78003400f80004002000a4018800a1
:1005c0000400fa00854b8000944b800004825200a6
:1005d000048fea001e0278007f0f62008560a90088
:1005e0001b0037001e02780004f0a7000402ea0096
:1005f0000402ea004f22de00044278001e0fe900e8
:10060000e04f52000b003200864b80003411800016
:10061000844278000495200004024300054a7800d3
:10062000844b80000402e8007f026200844b880053
:10063000070037003411800014079800141180005f
:1006400061026200e00f5200faff3a000400370036
:100650001411800061026200e00f5200e1ff3a00d5
:100660001411800062026200e00f520002003200aa
:100670008560a9002222a9000080fa003400f90058
:100680004f0378004f02be0000400600849fbe006a
:100690003400f80004002000a40188000000fa00e3
:1006a00087e0a9000b00370015448000048020007b
:1006b00004824200144278000482fb00a4118800e6
:1006c000144480008402e800f407200004826200e1
:1006d00014448800951180000420200004826200e8
:1006e000e00f520004003a000544800014448000ea
:1006f000848f5200ecff3a000080fa003400f900c9
:100700004f02be0000400600849fbe00861f780096
:100710003400f80004002000a40188000400fa005e
:10072000254580003445800004825200048fea0091
:100730001e0278007f0f620087c0a9001b003700ef
:100740001e02780004f0a7000402ea000402ea0096
:100750004f22de00044278001e0fe900e04f5200f5
:100760000b00320026458000b411800084427800de
:100770004488200004024300054a78002445800094
:100780000402e8007f026200244588000700370069
:10079000b411800014079800941180006102620077
:1007a000e00f5200faff3a00040037009411800075
:1007b00061026200e00f5200e1ff3a0094118000f4
:1007c00062026200e00f52000200320087c0a900fe
:1007d0003222a9000080fa003400f9004f037800ab
:1007e0004f02be00004006003600f800809fbe00a9
:1007f000829fbe00849fbe00869fbe003400f8002a
:1008000000002000a00188000000fa008460a90018
:10081000b44b8000e00f520001003a007829a80094
:10082000b44b80000402e800b44b8800b44b800055
:10083000f90f520002003a000002eb00b44b8800ae
:100840000000eb00f10007008460a9002404800090
:1008500068026200e00f520016003a0042a0a800b1
:1008600042c0a900d44b800062026200e00f520037
:1008700012003a00c44b800062026200e00f520096
:10088000090032007a29a8007829a9001000200068
:10089000de000700c44b800062026200e00f5200dd
:1008a000f9ff3a007a29a90042c0a80042a0a90095
:1008b00003003700000000000100370000000000c6
:1008c0000080fa003400f9004f03be004f02be0062
:1008d0004f01be004f00be003600f9000040060088
:1008e0000000fa00143a80004c22de0067426200e9
:1008f0000482fb006102620004427800e04f520073
:100900001d003200143a80004c22de006742620073
:100910000482fb0064026200e00f520016003a00fd
:100920000003eb0084072000a50920003774200095
:10093000844b7800854b7800864b780016002000a9
:10094000640420007505200027742000844b780083
:10095000854b7800864b7800000000000000000006
:1009600000000000153a80000400270004826200a5
:10097000e00f5200fbff3a0064032000343a880085
:1009800054002000243a880036002000840720000c
:10099000a509200037742000844b7800854b78002f
:1009a000864b7800160020006404200075052000a6
:1009b00027742000844b7800854b7800864b7800a4
:1009c00004062000641988003400200024358800c3
:1009d000540120003435880034002000843688001b
:1009e00054002000a4368800e4fe2f0084168800fe
:1009f00000000000153a8000040027008482620095
:100a000004002300848f5200faff3a000000000027
:100a1000153a80000402200004826200e00f5200b8
:100a2000fbff3200870007002405800004c0a100fe
:100a300004d0a00004e0a100240588008460a9007f
:100a40009460a800f4c3290014088800e4c32900b6
:100a5000040888000400280024088800ffff3700ed
:100a60000040da000000fe000002780002003700bb
:100a7000015a78000201e900e00f5100fcff3a0042
:040a8000000006006c
:020000040000fa
:0200000401f009
:04000c00faff0000f7
:020000040000fa
:0200000401f009
:0400100078ff000075
:020000040000fa
:0200000401f009
:040014007fff00006a
:020000040000fa
:0200000401f009
:04001800fcff0000e9
:020000040000fa
:0200000401f009
:04001c00ddff000004
:020000040000fa
:100008003005000030050000300500003005000014
:100018003005000030050000300500003005000004
:10002800300500003005000030050000f403000032
:1000380030050000300500003005000030050000e4
:10004800300500003005000030050000d602000031
:100058009a0200003005000030050000300500005d
:1000680030050000300500003005000030050000b4
:1000780030050000300500003005000030050000a4
:100088003005000030050000300500003005000094
:10009800300500003005000084030000460300001e
:1000a8003005000030050000300500003005000074
:1000b8003005000030050000300500003005000064
:1000c8003005000030050000300500003005000054
:1000d8003005000030050000300500003005000044
:1000e8003005000030050000300500003005000034
:1000f8003005000030050000300500003005000024
:100108003005000030050000300500003005000013
:100118003005000030050000300500003005000003
:1001280030050000300500003005000030050000f3
:1001380030050000300500003005000030050000e3
:1001480030050000300500003005000030050000d3
:1001580030050000300500003005000030050000c3
:1001680030050000300500003005000030050000b3
:1001780030050000300500003005000030050000a3
:100188003005000030050000300500003005000093
:100198003005000030050000300500003005000083
:1001a8003005000030050000300500003005000073
:1001b8003005000030050000300500003005000063
:1001c8003005000030050000300500003005000053
:1001d8003005000030050000300500003005000043
:1001e8003005000030050000300500003005000033
:0801f800300500003005000095
:020000040000fa
:100208003005000030050000300500003005000012
:100218003005000030050000300500003005000002
:10022800300500003005000030050000f403000030
:1002380030050000300500003005000030050000e2
:10024800300500003005000030050000d60200002f
:100258009a0200003005000030050000300500005b
:1002680030050000300500003005000030050000b2
:1002780030050000300500003005000030050000a2
:100288003005000030050000300500003005000092
:10029800300500003005000084030000460300001c
:1002a8003005000030050000300500003005000072
:1002b8003005000030050000300500003005000062
:1002c8003005000030050000300500003005000052
:1002d8003005000030050000300500003005000042
:1002e8003005000030050000300500003005000032
:1002f8003005000030050000300500003005000022
:100308003005000030050000300500003005000011
:100318003005000030050000300500003005000001
:1003280030050000300500003005000030050000f1
:1003380030050000300500003005000030050000e1
:1003480030050000300500003005000030050000d1
:1003580030050000300500003005000030050000c1
:1003680030050000300500003005000030050000b1
:1003780030050000300500003005000030050000a1
:100388003005000030050000300500003005000091
:100398003005000030050000300500003005000081
:1003a8003005000030050000300500003005000071
:1003b8003005000030050000300500003005000061
:1003c8003005000030050000300500003005000051
:1003d8003005000030050000300500003005000041
:1003e8003005000030050000300500003005000031
:0803f800300500003005000093
:020000040000fa
:040a8400280900003d
:020000040000fa
:100a88000000fa000080fa00000006000a00fa00e0
:100a9800848a2000340798000002eb00040f7800d5
:100aa80011003700854b8000944b8000848f5200e2
:100ab800120032001e027800be029000048242003a
:100ac800964b8000059520008502430095427800ea
:100ad800054a7800944b80000402e8007f02620017
:100ae800944b88001e0fe800f40720009e0278004f
:100af800848f5200ebff3400010037000000000033
:100b08001e027800be029000048242008042eb0080
:100b1800054a78000544800014448000048352008c
:100b2800060278000482ea008582ea001407980029
:100b38009e029000f40720000482620014079800c7
:100b4800848a2000440798000002eb0024079800dc
:100b58001c0037001e029000e00f52001d003200fa
:100b68002e029000ce0290000482420014427800c7
:100b7800e04f520017003200064480002e02900019
:100b8800ce02900004824200944278000480200043
:100b980004024300054a7800044480008402e80007
:100ba800f407200004826200044488001e029000ba
:100bb8000402e900140798002e0290000402e800dd
:100bc80024079800ae029000f4072000848f52009a
:100bd800e0ff3400941180004822de006142620088
:100be8000482fb004f22dd0036048000f5ff270059
:100bf8008502630005027200340488000080fa0050
:100c0800000006000200fa00000f78001e027800bb
:100c1800e00f520003003200e10f520003003200df
:100c28000400370096ff07000200370097ff07000f
:100c3800000000000080fa00000006000000fa0032
:100c4800020820008000eb00808a200084ff070053
:100c580064052000c41188008400280084118800dd
:100c680004402200941188000002eb00144488001c
:100c78000002eb00044488009405800004c0a00032
:100c880004d0a10004e0a1009405880087e0a90031
:100c980097e0a8000002eb00344588000002eb0052
:100ca80024458800940580000480a0000490a100d9
:100cb80004a0a1009405880087c0a90097c0a800d7
:100cc800640520004411880084002800041188006d
:100cd80004402200141188000002eb00744a8800c6
:100ce8000002eb00644a8800540580000400a0005c
:100cf8000410a1000420a100540588008580a900e3
:100d08009580a8000002eb00944b88000002eb00dd
:100d1800844b88004405800004c0a00004d0a100d2
:100d280004e0a100440588008560a9009560a8003a
:080d38000080fa000000060033
:020000040000fa
:100d40002c0900004800000000000000000800001e
:100d5000a800000000000000740900000800000066
:100d600000000000a808000084000000000000004f
:040d7000000000007f
:00000001FF
