:020000040000fa
:080000000002040000000000f2
:020000040000fa
:10040000af8620000e7f24000e018800000000004f
:10041000000020000000e000020032000001200087
:10042000200288000c0007008062200001002000ec
:1004300011000700000020000000e0000200320070
:100440000000020000000000c203020000000000e3
:100450000040da000000fe004440a9002000200017
:100460000000e0000300320000002000a00188002e
:100470004440a80000000600910188008000780038
:100480000000eb0015003700e280400032a0b4000d
:100490009101ba00e280400032a0b4009102ba009b
:1004a000e280400032a0b4000002eb00472bde00e7
:1004b000f507b200602ce10004003a000059eb009f
:1004c0008301e900fdff3e00040037006128e100e0
:1004d000010032000082eb00040007001101ba00a5
:1004e0000200e000e8ff3a00000006003159ba00bf
:1004f0008301e9000c0032002159ba008301e900b0
:10050000080032000400e00003003a00e2804000ee
:1005100032a0b400f5ff370011d9ba008301e90019
:10052000faff3a008100e800e180400032a0b40008
:1005300000000600849fbe003400f8000400200084
:10054000a40188000000fa008580a9000a00370095
:10055000154180000480200004824200144278008b
:100560000482fb0024118800144180000402e8008a
:100570007f026200144188001511800004202000d1
:1005800004826200e00f520004003a00054180003e
:1005900014418000848f5200edff3a000080fa0081
:1005a0003400f9004f02be0000400600849fbe00e8
:1005b000861f78003400f80004002000a4018800a1
:1005c0000400fa0025428000344280000482520078
:1005d000048fea001e0278007f0f62008560a90088
:1005e0001b0037001e02780004f0a7000402ea0096
:1005f0000402ea004f22de00044278001e0fe900e8
:10060000e04f52000b00320026428000341180007f
:10061000844278004482200004024300054a7800a6
:10062000244280000402e8007f0262002442880025
:10063000070037003411800014079800141180005f
:1006400061026200e00f5200faff3a000400370036
:100650001411800061026200e00f5200e1ff3a00d5
:100660001411800062026200e00f520002003200aa
:100670008560a9002222a9000080fa003400f90058
:100680004f0378004f02be00004006003600f8001d
:10069000809fbe00829fbe00849fbe00869fbe00da
:1006a0003400f80000002000a00188000000fa00db
:1006b0008460a900a4428000e00f520001003a00cb
:1006c0005628a800a44280000402e800a442880042
:1006d000a4428000ea0f520002003a000002eb0040
:1006e000a44288000000eb00090107008460a90013
:1006f0002404800068026200e00f520016003a00f5
:1007000042a0a80042c0a900c44280006202620068
:10071000e00f520012003a00b44280006202620010
:10072000e00f5200090032005828a8005628a900fe
:1007300010002000f6000700b44280006202620050
:10074000e00f5200f9ff3a005828a90042c0a80063
:1007500042a0a9000300370000000000010037009c
:10076000000000000080fa003400f9004f03be00d2
:100770004f02be004f01be004f00be003600f90020
:10078000004006000000fa00143a80004c22de000f
:10079000674262000482fb0061026200044278004a
:1007a000e04f52001d003200143a80004c22de005f
:1007b000674262000482fb0064026200e00f5200a4
:1007c00016003a000003eb0084072000a509200072
:1007d00037742000844b7800854b7800864b780076
:1007e00016002000640420007505200027742000f6
:1007f000844b7800854b7800864b78000000000021
:100800000000000000000000153a800004002700ee
:1008100004826200e00f5200fbff3a0064032000f4
:10082000343a880054002000243a88003600200022
:1008300084072000a509200037742000844b78002d
:10084000854b7800864b7800160020006404200059
:100850007505200027742000844b7800854b7800b4
:10086000864b78000401200064198800d400200021
:10087000c4348800a4b02000e4348800540120006f
:100880002435880034002000a4368800f4b72f00f7
:1008900004168800f4ff2b0044168800f4fe2f0095
:1008a0008416880000000000153a8000040027002c
:1008b0008482620004002300848f5200faff3a0011
:1008c00000000000153a800004022000048262004b
:1008d000e00f5200fbff32009b0007002405800060
:1008e00004c0a10004d0a00004e0a10024058800f9
:1008f0008460a9009460a800f4c32900140888004b
:10090000e4c32900040888000400280024088800a3
:10091000ffff37000040da000000fe000002780010
:1009200002003700015a78000201e900e00f51008f
:08093000fcff3a000000060084
:020000040000fa
:0200000401f009
:04000c00faff0000f7
:020000040000fa
:0200000401f009
:0400100078ff000075
:020000040000fa
:0200000401f009
:040014007fff00006a
:020000040000fa
:0200000401f009
:04001800fcff0000e9
:020000040000fa
:0200000401f009
:04001c00ddff000004
:020000040000fa
:100008008a0400008a0400008a0400008a040000b0
:100018008a0400008a0400008a0400008a040000a0
:100028008a0400008a0400008a04000046030000d5
:100038008a0400008a0400008a0400008a04000080
:100048008a0400008a0400008a040000d602000026
:100058009a0200008a0400008a0400008a04000052
:100068008a0400008a0400008a0400008a04000050
:100078008a0400008a0400008a0400008a04000040
:100088008a0400008a0400008a0400008a04000030
:100098008a0400008a0400008a0400008a04000020
:1000a8008a0400008a0400008a0400008a04000010
:1000b8008a0400008a0400008a0400008a04000000
:1000c8008a0400008a0400008a0400008a040000f0
:1000d8008a0400008a0400008a0400008a040000e0
:1000e8008a0400008a0400008a0400008a040000d0
:1000f8008a0400008a0400008a0400008a040000c0
:100108008a0400008a0400008a0400008a040000af
:100118008a0400008a0400008a0400008a0400009f
:100128008a0400008a0400008a0400008a0400008f
:100138008a0400008a0400008a0400008a0400007f
:100148008a0400008a0400008a0400008a0400006f
:100158008a0400008a0400008a0400008a0400005f
:100168008a0400008a0400008a0400008a0400004f
:100178008a0400008a0400008a0400008a0400003f
:100188008a0400008a0400008a0400008a0400002f
:100198008a0400008a0400008a0400008a0400001f
:1001a8008a0400008a0400008a0400008a0400000f
:1001b8008a0400008a0400008a0400008a040000ff
:1001c8008a0400008a0400008a0400008a040000ef
:1001d8008a0400008a0400008a0400008a040000df
:1001e8008a0400008a0400008a0400008a040000cf
:0801f8008a0400008a040000e3
:020000040000fa
:100208008a0400008a0400008a0400008a040000ae
:100218008a0400008a0400008a0400008a0400009e
:100228008a0400008a0400008a04000046030000d3
:100238008a0400008a0400008a0400008a0400007e
:100248008a0400008a0400008a040000d602000024
:100258009a0200008a0400008a0400008a04000050
:100268008a0400008a0400008a0400008a0400004e
:100278008a0400008a0400008a0400008a0400003e
:100288008a0400008a0400008a0400008a0400002e
:100298008a0400008a0400008a0400008a0400001e
:1002a8008a0400008a0400008a0400008a0400000e
:1002b8008a0400008a0400008a0400008a040000fe
:1002c8008a0400008a0400008a0400008a040000ee
:1002d8008a0400008a0400008a0400008a040000de
:1002e8008a0400008a0400008a0400008a040000ce
:1002f8008a0400008a0400008a0400008a040000be
:100308008a0400008a0400008a0400008a040000ad
:100318008a0400008a0400008a0400008a0400009d
:100328008a0400008a0400008a0400008a0400008d
:100338008a0400008a0400008a0400008a0400007d
:100348008a0400008a0400008a0400008a0400006d
:100358008a0400008a0400008a0400008a0400005d
:100368008a0400008a0400008a0400008a0400004d
:100378008a0400008a0400008a0400008a0400003d
:100388008a0400008a0400008a0400008a0400002d
:100398008a0400008a0400008a0400008a0400001d
:1003a8008a0400008a0400008a0400008a0400000d
:1003b8008a0400008a0400008a0400008a040000fd
:1003c8008a0400008a0400008a0400008a040000ed
:1003d8008a0400008a0400008a0400008a040000dd
:1003e8008a0400008a0400008a0400008a040000cd
:0803f8008a0400008a040000e1
:020000040000fa
:040938004c08000067
:020000040000fa
:10093c000600fa00541680004222de00614262007a
:10094c0024479800b68420001643780014c0b300e6
:10095c00ae429000854f530001003e000042eb0078
:10096c00a58420009542780005426a00344798001f
:10097c003e429000444798004e4290006142620013
:10098c000482fb00610262004722dd002616800013
:10099c00f5f72f008502630005027200241688000b
:1009ac00240f8000444288003e429000a584200021
:1009bc00844a78002e429000b5842000844a780046
:1009cc000541800014418000048252000482ea0038
:1009dc00040f78009e0278007f8f62001e02780060
:1009ec00e30f52000200340034002000040f7800a2
:1009fc0084428000e00f52002d003a001e02780065
:100a0c00630f52001e027800e00f520027003500e1
:100a1c0005418000048020000482420055c0b300d0
:100a2c00054a7800044180000402e8007f0262005d
:100a3c0004418800064180004442800084427800d2
:100a4c000480200004024300054a78000441800021
:100a5c000402e8007f026200044188000641800025
:100a6c004442800048a2de008442780004802000ca
:100a7c0004024300054a7800044180000402e800a7
:100a8c007f02620004418800844280000402e80076
:100a9c008442880084428000e00f5200040032003f
:100aac000002eb00844288000100370000000000c7
:100abc001e027800e00f5200cdff3c0014118000a4
:100acc004822de00614262000482fb006102620087
:100adc004c22dd0026048000f5ff2e008502630009
:100aec0005027200240488000080fa000000060051
:100afc000000fa00449c2000b40e88000080fa002c
:100b0c00000006000200fa00000f78001e027800b8
:100b1c00e00f520003003200e10f520003003200dc
:100b2c000400370082ff070002003700f0ff0700c7
:100b3c00000000000080fa00000006000000fa002f
:100b4c00220020008000eb008084200070ff070052
:100b5c00220020008000eb00a08420006cff070026
:100b6c0004012000440e880064002000540e88000c
:100b7c000002eb00640e880014002000740e880044
:100b8c0064082000840e8800f47c2000240e880069
:100b9c00840c2000340e880004002800040e880009
:100bac00c542a9000082eb00340f8800041f20000e
:100bbc00140f880004c02000040f88006405200076
:100bcc00441188008400280004118800044022008d
:100bdc00141188000002eb00144188000002eb00a5
:100bec0004418800540580000400a0000410a100fa
:100bfc000420a100540588008580a9009580a800d8
:100c0c000002eb00344288000002eb002442880012
:100c1c004405800004c0a00004d0a10004e0a100a1
:100c2c00440588008560a9009560a80014c0b30035
:100c3c0004437800a5842000864a78000080fa00de
:040c4c00000006009e
:020000040000fa
:100c500000080000480000000000000052080000ea
:100c60000800000000000000480800000a00000022
:080c700000000000000000007c
:00000001FF
