:020000040000fa
:080000000002040000000000f2
:020000040000fa
:100400000fae20000e7f24000e01880000000000c7
:10041000000020000000e000020032000001200087
:10042000200288000c000700e07b20000100200073
:1004300011000700000020000000e0000200320070
:100440000000020000000000720402000000000032
:100450000040da000000fe004440a900c000200077
:100460000000e0000300320000002000a00188002e
:100470004440a80000000600910188008000780038
:100480000000eb0015003700e280400032a0b4000d
:100490009101ba00e280400032a0b4009102ba009b
:1004a000e280400032a0b4000002eb00472bde00e7
:1004b000f507b200602ce10004003a000059eb009f
:1004c0008301e900fdff3e00040037006128e100e0
:1004d000010032000082eb00040007001101ba00a5
:1004e0000200e000e8ff3a00000006003159ba00bf
:1004f0008301e9000c0032002159ba008301e900b0
:10050000080032000400e00003003a00e2804000ee
:1005100032a0b400f5ff370011d9ba008301e90019
:10052000faff3a008100e800e180400032a0b40008
:1005300000000600849fbe003400f8000400200084
:10054000a40188000000fa008580a9000b00370094
:1005500055508000849820000482420014427800a4
:100560000482fb0024118800545080008402e800bb
:10057000f4072000048262005450880015118000a6
:100580000420200004826200e00f520004003a00c0
:100590004550800054508000848f5200ecff3a0098
:1005a0000080fa003400f9004f02be00004006004f
:1005b000849fbe00861f78003400f80004002000ed
:1005c000a40188000400fa0065548000745480007f
:1005d00004825200048fea00f40720001e0f62001c
:1005e0008560a9001c0037001e02780004f0a700f7
:1005f0000402ea000402ea004f22de00044278000e
:100600001e0fe900e04f52000c00320066548000db
:100610003411800084427800c4a02000040243000a
:10062000054a7800645480008402e800f407200042
:10063000048262006454880007003700341180008f
:10064000140798001411800061026200e00f52004c
:10065000faff3a00040037001411800061026200c2
:10066000e00f5200e0ff3a001411800062026200c5
:10067000e00f5200020032008560a9002222a9008a
:100680000080fa003400f9004f0378004f02be00ea
:1006900000400600849fbe003400f80004002000e3
:1006a000a40188000000fa0087e0a9000a003700d2
:1006b0001555800004a920000482420014427800ed
:1006c0000482fb00a4118800145580000402e80095
:1006d0006f026200145588009511800004202000ec
:1006e00004826200e00f520004003a0005558000c9
:1006f00014558000848f5200edff3a000080fa000c
:100700003400f9004f02be0000400600849fbe0086
:10071000861f78003400f80004002000a40188003f
:100720000400fa00255680003456800004825200ee
:10073000048fea001e0278007f0f620087c0a900c4
:100740001b0037001e02780004f0a7000402ea0034
:100750000402ea004f22de00044278001e0fe90086
:10076000e04f52000b00320026568000b41180008a
:100770008442780044aa200004024300054a78001d
:10078000245680000402e8007f026200245688009c
:1007900007003700b41180001407980094118000fe
:1007a00061026200e00f5200faff3a0004003700d5
:1007b0009411800061026200e00f5200e1ff3a00f4
:1007c0009411800062026200e00f520002003200c9
:1007d00087c0a9003222a9000080fa003400f90085
:1007e0004f0378004f02be00004006003600f800bc
:1007f000809fbe00829fbe00849fbe00869fbe0079
:100800003400f80000002000a00188000000fa0079
:100810008460a90054568000e00f520001003a00a5
:10082000cc2aa800545680000402e80054568800e0
:1008300054568000ea0f520002003a000002eb001a
:10084000545688000000eb00110107008460a900e5
:100850002404800068026200e00f520016003a0093
:1008600042a0a80042c0a900745680006202620043
:10087000e00f520012003a006456800062026200eb
:10088000e00f520009003200ce2aa800cc2aa900ad
:1008900010002000fe000700645680006202620023
:1008a000e00f5200f9ff3a00ce2aa90042c0a8008a
:1008b00042a0a9000300370000000000010037003b
:1008c000000000000080fa003400f9004f03be0071
:1008d0004f02be004f01be004f00be003600f900bf
:1008e000004006000000fa00143a80004c22de00ae
:1008f000674262000482fb006102620004427800e9
:10090000e04f52001d003200143a80004c22de00fd
:10091000674262000482fb0064026200e00f520042
:1009200016003a000003eb0084072000a509200010
:1009300037742000844b7800854b7800864b780014
:100940001600200064042000750520002774200094
:10095000844b7800854b7800864b780000000000bf
:100960000000000000000000153a8000040027008d
:1009700004826200e00f5200fbff3a00e40920000d
:10098000343a880094012000243a88003600200080
:1009900084072000a509200037742000844b7800cc
:1009a000854b7800864b78001600200064042000f8
:1009b0007505200027742000844b7800854b780053
:1009c000864b78000002eb0064198800e4002000e8
:1009d000243588005401200034358800043020007c
:1009e0006436880054002000a4368800f4ff2d00ef
:1009f00044168800f4fe2f008416880000000000d2
:100a0000153a80000400270084826200040023005d
:100a1000848f5200faff3a0000000000153a80006f
:100a20000402200004826200e00f5200fbff32004b
:100a3000a50007002405800004c0a10004d0a00088
:100a400004e0a100240588008460a9009460a80047
:100a5000f4c3290014088800e4c3290004088800ae
:100a60000400280024088800ffff37000040da0057
:100a70000000fe000002780002003700315a7800c2
:100a80000201e900e00f5100fcff3a0000000600ff
:100a90000002780002003700015a78000201e900e4
:0c0aa000e00f5100fcff3a0000000600cf
:020000040000fa
:0200000401f009
:04000c00faff0000f7
:020000040000fa
:0200000401f009
:0400100078ff000075
:020000040000fa
:0200000401f009
:040014007fff00006a
:020000040000fa
:0200000401f009
:04001800fcff0000e9
:020000040000fa
:0200000401f009
:04001c00ddff000004
:020000040000fa
:1000080036050000360500003605000036050000fc
:1000180036050000360500003605000036050000ec
:10002800360500003605000036050000f60300001e
:1000380036050000360500003605000036050000cc
:10004800360500003605000036050000d80200001d
:100058009a0200003605000036050000360500004b
:10006800360500003605000036050000360500009c
:10007800360500003605000036050000360500008c
:10008800360500003605000036050000360500007c
:100098003605000036050000860300004a0300000c
:1000a800360500003605000036050000360500005c
:1000b800360500003605000036050000360500004c
:1000c800360500003605000036050000360500003c
:1000d800360500003605000036050000360500002c
:1000e800360500003605000036050000360500001c
:1000f800360500003605000036050000360500000c
:1001080036050000360500003605000036050000fb
:1001180036050000360500003605000036050000eb
:1001280036050000360500003605000036050000db
:1001380036050000360500003605000036050000cb
:1001480036050000360500003605000036050000bb
:1001580036050000360500003605000036050000ab
:10016800360500003605000036050000360500009b
:10017800360500003605000036050000360500008b
:10018800360500003605000036050000360500007b
:10019800360500003605000036050000360500006b
:1001a800360500003605000036050000360500005b
:1001b800360500003605000036050000360500004b
:1001c800360500003605000036050000360500003b
:1001d800360500003605000036050000360500002b
:1001e800360500003605000036050000360500001b
:0801f800360500003605000089
:020000040000fa
:1002080036050000360500003605000036050000fa
:1002180036050000360500003605000036050000ea
:10022800360500003605000036050000f60300001c
:1002380036050000360500003605000036050000ca
:10024800360500003605000036050000d80200001b
:100258009a02000036050000360500003605000049
:10026800360500003605000036050000360500009a
:10027800360500003605000036050000360500008a
:10028800360500003605000036050000360500007a
:100298003605000036050000860300004a0300000a
:1002a800360500003605000036050000360500005a
:1002b800360500003605000036050000360500004a
:1002c800360500003605000036050000360500003a
:1002d800360500003605000036050000360500002a
:1002e800360500003605000036050000360500001a
:1002f800360500003605000036050000360500000a
:1003080036050000360500003605000036050000f9
:1003180036050000360500003605000036050000e9
:1003280036050000360500003605000036050000d9
:1003380036050000360500003605000036050000c9
:1003480036050000360500003605000036050000b9
:1003580036050000360500003605000036050000a9
:100368003605000036050000360500003605000099
:100378003605000036050000360500003605000089
:100388003605000036050000360500003605000079
:100398003605000036050000360500003605000069
:1003a8003605000036050000360500003605000059
:1003b8003605000036050000360500003605000049
:1003c8003605000036050000360500003605000039
:1003d8003605000036050000360500003605000029
:1003e8003605000036050000360500003605000019
:0803f800360500003605000087
:020000040000fa
:100aac00486f00006c6f00005f4b0000434b000070
:080abc00434b00008209000019
:020000040000fa
:100ac4000000fa00042b8400c44290008542e80030
:100ad40045429800042b840044429000e94f5200a0
:100ae40003003600042b84008042eb00454298004a
:100af400042b840044429000e14f520004003a0069
:100b0400020820002190200000802000d8ff070068
:100b140000802000b9000700000278000442780039
:100b24000443780005882000864a7800042b84005a
:100b340044429000e14f520005003a00048820002e
:100b4400144278000443780015882000864a78000f
:100b54000080fa00000006000600fa002488200045
:100b6400140798000002eb00040f7800120037000d
:100b74006554800074548000848f52001300320046
:100b84001e0278009e029000048242007654800087
:100b9400c5a020008502430095427800054a7800ec
:100ba400745480008402e800f40720000482620088
:100bb400745488001e0fe800f40720009e02780099
:100bc400848f5200eaff3400010037000000000067
:100bd4001e0278009e029000048242008042eb00d4
:100be400054a780002082000218820002090200077
:100bf4009fff0700055580001455800004835200b0
:100c0400060278000482ea008582ea00240798003c
:100c14002e0290006f026200240798002e029000ba
:100c2400e00f52000d0032000655800015882000a8
:100c34009542780004a9200004024300054a780084
:100c4400045580000402e8006f0262000455880025
:100c54002e0290000402e9002407980094118000f9
:100c64004822de00614262000482fb004f22dd0064
:100c740036048000f5ff2700850263000502720038
:100c8400340488000080fa00000006000200fa0024
:100c9400000f78001e027800e00f520003003200bb
:100ca400e10f5200030032000400370084ff070004
:100cb40002003700a8ff0700000000000080fa00cf
:100cc400000006000000fa00042b840052002000fb
:100cd4008000eb00040078006cff0700042b840004
:100ce40015c0b30025429800042b8400a5c0b300ae
:100cf40035429800221020008000eb000080200084
:100d040062ff0700020820008000eb002090200012
:100d14005eff070064052000c411880084002800d9
:100d24008411880004402200941188000002eb0022
:100d3400145588000002eb000455880094058000d7
:100d440004c0a00004d0a10004e0a1009405880020
:100d540087e0a90097e0a8000002eb003456880061
:100d64000002eb0024568800940580000480a00053
:100d74000490a10004a0a1009405880087c0a900e4
:100d840097c0a8006405200044118800840028004e
:100d94000411880004402200141188000002eb00b2
:100da400545088000002eb00445088005405800031
:100db4000400a0000410a1000420a1005405880030
:100dc4008580a9009580a8000002eb007454880077
:100dd4000002eb00645488004405800004c0a000b5
:100de40004d0a00004e0a100440588008560a900a7
:100df4009560a8000080fa00000006001600fa00c2
:100e0400200f98006a024700655528000900090070
:100e1400355a78002e0a90009442780044c2b300f8
:100e240084cf52004f003a002e0a90000402e800da
:100e34009442780064c5b30084cf520049003a005c
:100e44002e0a90000482e80094427800e4c4b300bf
:100e540084cf520043003a002e0a900063024200fd
:100e64009442780094c5b30084cf52003d003a0008
:100e74002e0a90006402420094427800d4c4b30065
:100e840084cf520037003a002e0a900065024200d7
:100e94009442780024c5b30084cf520031003a0054
:100ea4002e0a90006602420094427800c4c2b30045
:100eb40084cf52002b003a002e0a90005405b00053
:100ec40014427800044f78002e0a90006405b000a4
:100ed40014427800144798002e0a90007405b0005c
:100ee40014427800244798002e0a90008405b0002c
:100ef40014427800344798002e0a90009405b000fc
:100f040014427800444798002e0a9000a405b000cb
:100f140014427800544798002e0a9000b405b0009b
:100f240014427800644798002e0a9000c405b0006b
:100f340014427800744798002e0a9000d405b0003b
:100f440014427800044f98002e0a9000e405b00083
:100f540014427800144f98000e027800044278007e
:100f6400020037006a024700044278000440780017
:080f74000080fa0000000600f5
:020000040000fa
:100f7c00880900000801000000000000900a000031
:100f8c003800000000000000c80a00000800000043
:100f9c0000000000000800008801000000000000b4
:040fac000000000041
:00000001FF
