:020000040000fa
:080000000002040000000000f2
:020000040000fa
:100400000f8b20000e7f24000e01880000000000ea
:10041000000020000000e000020032000001200087
:10042000200288000c000700606a20000100200004
:1004300011000700000020000000e0000200320070
:100440000000020000000000700402000000000034
:100450000040da000000fe004440a9002000200017
:100460000000e0000300320000002000a00188002e
:100470004440a80000000600910188008000780038
:100480000000eb0015003700e280400032a0b4000d
:100490009101ba00e280400032a0b4009102ba009b
:1004a000e280400032a0b4000002eb00472bde00e7
:1004b000f507b200602ce10004003a000059eb009f
:1004c0008301e900fdff3e00040037006128e100e0
:1004d000010032000082eb00040007001101ba00a5
:1004e0000200e000e8ff3a00000006003159ba00bf
:1004f0008301e9000c0032002159ba008301e900b0
:10050000080032000400e00003003a00e2804000ee
:1005100032a0b400f5ff370011d9ba008301e90019
:10052000faff3a008100e800e180400032a0b40008
:1005300000000600849fbe003400f8000400200084
:10054000a40188000000fa008580a9000a00370095
:10055000154180000480200004824200144278008b
:100560000482fb0024118800144180000402e8008a
:100570007f026200144188001511800004202000d1
:1005800004826200e00f520004003a00054180003e
:1005900014418000848f5200edff3a000080fa0081
:1005a0003400f9004f02be0000400600849fbe00e8
:1005b000861f78003400f80004002000a4018800a1
:1005c0000400fa0025428000344280000482520078
:1005d000048fea001e0278007f0f62008560a90088
:1005e0001b0037001e02780004f0a7000402ea0096
:1005f0000402ea004f22de00044278001e0fe900e8
:10060000e04f52000b00320026428000341180007f
:10061000844278004482200004024300054a7800a6
:10062000244280000402e8007f0262002442880025
:10063000070037003411800014079800141180005f
:1006400061026200e00f5200faff3a000400370036
:100650001411800061026200e00f5200e1ff3a00d5
:100660001411800062026200e00f520002003200aa
:100670008560a9002222a9000080fa003400f90058
:100680004f0378004f02be0000400600849fbe006a
:100690003400f80004002000a40188000000fa00e3
:1006a00087e0a9000a0037005543800084842000b9
:1006b00004824200144278000482fb00a4118800e6
:1006c000544380000402e8007f0262005443880023
:1006d000951180000420200004826200e00f520087
:1006e00004003a004543800054438000848f520048
:1006f000edff3a000080fa003400f9004f02be001e
:1007000000400600849fbe00861f78003400f80079
:1007100004002000a40188000400fa006544800061
:100720007444800004825200048fea001e027800a4
:100730007f0f620087c0a9001b0037001e027800ef
:1007400004f0a7000402ea000402ea004f22de00df
:10075000044278001e0fe900e04f52000b00320007
:1007600066448000b411800084427800c486200072
:1007700004024300054a7800644480000402e80053
:100780007f0262006444880007003700b4118000d3
:10079000140798009411800061026200e00f52007b
:1007a000faff3a00040037009411800061026200f1
:1007b000e00f5200e1ff3a009411800062026200f3
:1007c000e00f52000200320087c0a9003222a900c7
:1007d0000080fa003400f9004f0378004f02be0099
:1007e000004006003600f800809fbe00829fbe00d9
:1007f000849fbe00869fbe003400f80000002000e9
:10080000a00188000000fa008460a90094448000e0
:10081000e00f520001003a009428a80094448000a0
:100820000402e800944488009544800044062000b7
:10083000848f520002003a000002eb0094448800ca
:100840000000eb00f40007008460a900240480008d
:1008500068026200e00f520016003a0042a0a800b1
:1008600042c0a900b444800062026200e00f52005e
:1008700012003a00a444800062026200e00f5200bd
:10088000090032009628a8009428a9001000200032
:10089000e1000700a444800062026200e00f520001
:1008a000f9ff3a009628a90042c0a80042a0a9007a
:1008b00003003700000000000100370000000000c6
:1008c0000080fa003400f9004f03be004f02be0062
:1008d0004f01be004f00be003600f9000040060088
:1008e0000000fa00143a80004c22de0067426200e9
:1008f0000482fb006102620004427800e04f520073
:100900001d003200143a80004c22de006742620073
:100910000482fb0064026200e00f520016003a00fd
:100920000003eb0084072000a50920003774200095
:10093000844b7800854b7800864b780016002000a9
:10094000640420007505200027742000844b780083
:10095000854b7800864b7800000000000000000006
:1009600000000000153a80000400270004826200a5
:10097000e00f5200fbff3a00e4092000343a8800ff
:1009800094012000243a88003600200084072000cb
:10099000a509200037742000844b7800854b78002f
:1009a000864b7800160020006404200075052000a6
:1009b00027742000844b7800854b7800864b7800a4
:1009c0000406200064198800e40020002435880013
:1009d000340020003435880004302000643688005c
:1009e0005400200084368800f4ff2d00441688004f
:1009f000e4ff2f008416880000000000153a8000f4
:100a0000040027008482620004002300848f5200c7
:100a1000faff3a0000000000153a800004022000ae
:100a200004826200e00f5200fbff320088000700e2
:100a30002405800004c0a10004d0a00004e0a100af
:100a4000240588008460a9009460a800f4c32900ec
:100a500014088800e4c32900040888000400280062
:100a600024088800ffff37000040da000000fe0085
:100a70000002780002003700015a78000201e90004
:0c0a8000e00f5100fcff3a0000000600ef
:020000040000fa
:0200000401f009
:04000c00faff0000f7
:020000040000fa
:0200000401f009
:0400100078ff000075
:020000040000fa
:0200000401f009
:040014007fff00006a
:020000040000fa
:0200000401f009
:04001800fcff0000e9
:020000040000fa
:0200000401f009
:04001c00ddff000004
:020000040000fa
:100008003405000034050000340500003405000004
:1000180034050000340500003405000034050000f4
:10002800340500003405000034050000f203000028
:1000380034050000340500003405000034050000d4
:10004800340500003405000034050000d602000025
:100058009a02000034050000340500003405000051
:1000680034050000340500003405000034050000a4
:100078003405000034050000340500003405000094
:100088003405000034050000340500003405000084
:100098003405000034050000820300004603000018
:1000a8003405000034050000340500003405000064
:1000b8003405000034050000340500003405000054
:1000c8003405000034050000340500003405000044
:1000d8003405000034050000340500003405000034
:1000e8003405000034050000340500003405000024
:1000f8003405000034050000340500003405000014
:100108003405000034050000340500003405000003
:1001180034050000340500003405000034050000f3
:1001280034050000340500003405000034050000e3
:1001380034050000340500003405000034050000d3
:1001480034050000340500003405000034050000c3
:1001580034050000340500003405000034050000b3
:1001680034050000340500003405000034050000a3
:100178003405000034050000340500003405000093
:100188003405000034050000340500003405000083
:100198003405000034050000340500003405000073
:1001a8003405000034050000340500003405000063
:1001b8003405000034050000340500003405000053
:1001c8003405000034050000340500003405000043
:1001d8003405000034050000340500003405000033
:1001e8003405000034050000340500003405000023
:0801f80034050000340500008d
:020000040000fa
:100208003405000034050000340500003405000002
:1002180034050000340500003405000034050000f2
:10022800340500003405000034050000f203000026
:1002380034050000340500003405000034050000d2
:10024800340500003405000034050000d602000023
:100258009a0200003405000034050000340500004f
:1002680034050000340500003405000034050000a2
:100278003405000034050000340500003405000092
:100288003405000034050000340500003405000082
:100298003405000034050000820300004603000016
:1002a8003405000034050000340500003405000062
:1002b8003405000034050000340500003405000052
:1002c8003405000034050000340500003405000042
:1002d8003405000034050000340500003405000032
:1002e8003405000034050000340500003405000022
:1002f8003405000034050000340500003405000012
:100308003405000034050000340500003405000001
:1003180034050000340500003405000034050000f1
:1003280034050000340500003405000034050000e1
:1003380034050000340500003405000034050000d1
:1003480034050000340500003405000034050000c1
:1003580034050000340500003405000034050000b1
:1003680034050000340500003405000034050000a1
:100378003405000034050000340500003405000091
:100388003405000034050000340500003405000081
:100398003405000034050000340500003405000071
:1003a8003405000034050000340500003405000061
:1003b8003405000034050000340500003405000051
:1003c8003405000034050000340500003405000041
:1003d8003405000034050000340500003405000031
:1003e8003405000034050000340500003405000021
:0803f80034050000340500008b
:020000040000fa
:040a8c009a080000c4
:020000040000fa
:100a90000000fa000080fa00000006000400fa00de
:100aa0006544800074448000848f5200110032003d
:100ab00075448000c48620000482420014427800fd
:100ac0000443780085892000864a780074448000b9
:100ad0000402e8007f0262007444880084892000d8
:100ae0001442780004437800e5892000864a7800a3
:100af00005003700e48920001442780004437800a0
:100b000085892000864a7800454380005443800050
:100b100004825200048fea001e0278007f0f6200f8
:100b20001e027800e00f52000a00320045438000a8
:100b3000848420000482420045c3b300054a780043
:100b4000444380000402e8007f02620044438800be
:100b50001e0fe900941180004822de00614262000d
:100b60000482fb004f22dd0036048000f5ff2700e1
:100b7000850263000502720034048800054180008c
:100b80001441800004835200060278000482ea00c7
:100b90008582ea00140798001e0290007f0262001e
:100ba000140798001e029000e00f52000d00320062
:100bb000064180008589200095427800048020004d
:100bc00004024300054a7800044180000402e80062
:100bd0007f026200044188001e0290000402e900c6
:100be00014079800141180004822de006142620060
:100bf0000482fb00610262004c22dd0026048000ba
:100c0000f5ff2e00850263000502720024048800af
:100c10000080fa00000006000200fa00000f7800d1
:100c20001e027800e00f520003003200e10f520074
:100c3000030032000400370095ff07000200370070
:100c400096ff0700000000000080fa000000060088
:100c50000000fa00120020008000eb0080892000d4
:100c600083ff070064052000c41188008400280069
:100c70008411880004402200941188000002eb00d7
:100c8000544388000002eb00444388009405800030
:100c900004c0a00004d0a10004e0a10094058800d5
:100ca00087e0a90097e0a8000002eb0074448800e8
:100cb0000002eb0064448800940580000480a000da
:100cc0000490a10004a0a1009405880087c0a90099
:100cd00097c0a80064052000441188008400280003
:100ce0000411880004402200141188000002eb0067
:100cf000144188000002eb00044188005405800084
:100d00000400a0000410a1000420a10054058800e4
:100d10008580a9009580a8000002eb00344288007d
:100d20000002eb00244288004405800004c0a000bb
:100d300004d0a10004e0a100440588008560a9005a
:0c0d40009560a8000080fa00000006008a
:020000040000fa
:100d4c0000080000480000000000000048080000f7
:100d5c00480000000000000090080000080000009f
:100d6c0000000000980800000800000000000000cf
:040d7c000000000073
:00000001FF
