:020000040000fa
:080000000002040000000000f2
:020000040000fa
:10040000cfcb20000e7f24000e01880000000000ea
:10041000000020000000e000020032000001200087
:10042000200288000c000700c09822000100200074
:1004300011000700000020000000e0000200320070
:10044000000002000000000016030200000000008f
:100450000040da000000fe004440a90060012000d6
:100460000000e0000300320000002000a00188002e
:100470004440a80000000600910188008000780038
:100480000000eb0015003700e280400032a0b4000d
:100490009101ba00e280400032a0b4009102ba009b
:1004a000e280400032a0b4000002eb00472bde00e7
:1004b000f507b200602ce10004003a000059eb009f
:1004c0008301e900fdff3e00040037006128e100e0
:1004d000010032000082eb00040007001101ba00a5
:1004e0000200e000e8ff3a00000006003159ba00bf
:1004f0008301e9000c0032002159ba008301e900b0
:10050000080032000400e00003003a00e2804000ee
:1005100032a0b400f5ff370011d9ba008301e90019
:10052000faff3a008100e800e180400032a0b40008
:10053000000006003600f800809fbe00829fbe00cb
:10054000849fbe00869fbe003400f800000020009b
:10055000a00188000000fa008460a900f452800025
:10056000e00f520001003a00602aa800f452800017
:100570000402e800f4528800f4528000ea0f5200ae
:1005800002003a000002eb00f45288000000eb0089
:10059000d61207008460a90024048000680262006b
:1005a000e00f520016003a0042a0a80042c0a90085
:1005b0001453800062026200e00f520012003a0001
:1005c0000453800062026200e00f52000900320012
:1005d000622aa800602aa90010002000c3120700a8
:1005e0000453800062026200e00f5200f9ff3a00fb
:1005f000622aa90042c0a80042a0a9000300370057
:100600000000000001003700000000000080fa0038
:100610003400f9004f03be004f02be004f01be0080
:100620004f00be003600f900004006000000fa004e
:10063000143a80004c22de00674262000482fb0014
:100640006102620004427800e04f52001d00320057
:10065000143a80004c22de00674262000482fb00f4
:1006600064026200e00f520016003a000003eb0043
:1006700084072000a509200037742000844b7800ef
:10068000854b7800864b780016002000640420001b
:100690007505200027742000844b7800854b780076
:1006a000864b780000000000000000000000000001
:1006b000153a80000400270004826200e00f520017
:1006c000fbff3a00e4092000343a8800940120003e
:1006d000243a88003600200084072000a509200065
:1006e00037742000844b7800854b7800864b780067
:1006f00016002000640420007505200027742000e7
:10070000844b7800854b7800864b780004062000e7
:100710006419880094012000c4348800e40020009b
:10072000243588003400200034358800043020004f
:10073000643688005400200084368800f47f2c0042
:1007400044168800e4ef2f008416880000000000a3
:10075000153a800004002700848262000400230010
:10076000848f5200faff3a0000000000153a800022
:100770000402200004826200e00f5200fbff3200fe
:10078000681207002405800004c0a10004d0a00066
:1007900004e0a100240588008460a9009460a800fa
:1007a000f4c3290014088800e4c329000408880061
:1007b0000400280024088800ffff3700849fbe0043
:1007c0003400f80004002000a40188000000fa00b2
:1007d0008580a9000b0037001544800004802000ac
:1007e00004824200144278000482fb002411880035
:1007f000144480008402e800f407200004826200b0
:100800001444880015118000042020000482620036
:10081000e00f520004003a000544800014448000b8
:10082000848f5200ecff3a000080fa003400f90097
:100830004f02be0000400600849fbe00861f780065
:100840003400f80004002000a40188000400fa002d
:10085000254880003448800004825200048fea005a
:10086000f40720001e0f62008560a9001c003700fd
:100870001e02780004f0a7000402ea000402ea0065
:100880004f22de00044278001e0fe900e04f5200c4
:100890000c00320026488000341180008442780029
:1008a0004488200004024300054a78002448800060
:1008b0008402e800f40720000482620024488800d3
:1008c00007003700341180001407980014118000cd
:1008d00061026200e00f5200faff3a0004003700a4
:1008e0001411800061026200e00f5200e0ff3a0044
:1008f0001411800062026200e00f52000200320018
:100900008560a9002222a9000080fa003400f900c5
:100910004f0378004f02be0000400600849fbe00d7
:100920003400f80004002000a40188000000fa0050
:1009300087e0a9000b003700554c80008490200010
:1009400004824200144278000482fb00a411880053
:10095000544c80008402e800f40720000482620006
:10096000544c88009511800004202000048262000d
:10097000e00f520004003a00454c8000544c8000c7
:10098000848f5200ecff3a000080fa003400f90036
:100990004f02be0000400600849fbe00861f780004
:1009a0003400f80004002000a40188000400fa00cc
:1009b000654d8000744d800004825200048fea006f
:1009c0001e0278007f0f620087c0a9001b0037005d
:1009d0001e02780004f0a7000402ea000402ea0004
:1009e0004f22de00044278001e0fe900e04f520063
:1009f0000b003200664d8000b41180008442780004
:100a0000c498200004024300054a7800644d800029
:100a10000402e8007f026200644d8800070037008e
:100a2000b4118000140798009411800061026200e4
:100a3000e00f5200faff3a000400370094118000e2
:100a400061026200e00f5200e1ff3a009411800061
:100a500062026200e00f52000200320087c0a9006b
:100a60003222a9000080fa003400f9004f03780018
:100a70004f02be00004006000040da000000fe0009
:100a80006900e100040035006d00e100030034005e
:100a90000002b10001003200000005001000050056
:100aa0000a00fa00e20f500022003e005465800068
:100ab000e10f520006003200872320004623200069
:100ac0002423200005232000e08f530004003a0077
:100ad0008722200046222000242220000522200018
:100ae000000028001500600003003a00800b780029
:100af00007002800958a7300054020009482620058
:100b000001003a0014a0a00082027800060037001d
:100b1000940378000710b200fdff3200b103fb0020
:100b2000070b78008502e900e08f5200f8ff3a00d9
:100b30000800370034002000c0bf9f00e2bf9f00c4
:100b4000b4bf9f00d1bf9f006a80570041090700d2
:100b50006fb99700020078000080fa0000000600dc
:100b600003f0a200889fbe008a9fbe008c1f780001
:100b70002f010700360133006450e1004f003200be
:100b80006420e1005200320003826c0007003b0049
:100b90000905d0000306d000820f54000c065d004a
:100ba0000200390002003200890178000306780053
:100bb0008582550004003d000003fd008103fd0017
:100bc0008502ea008b854200840f720002003b0020
:100bd00060001000e08018006011b8000005eb0014
:100be0007a28e1000a00390006007800c75ddd00c0
:100bf000f707b200878075002d00370082817100f1
:100c00000a017800610560008180d1000080d30076
:100c10008502e900f9ff3b00060440008784480094
:100c200002003b0060041400e0841c000988a3005b
:100c3000070032008a8171008281710061016400c5
:100c40008904d1000884d3008b05e8001700370021
:100c50000978a30013003a000b00e00013003400f1
:100c60008b05e9000804440089844c000a447400a0
:100c70000978a3000d003a000b00e00007003400e3
:100c80008b05e9000804440089844c0001003a0007
:100c90000b0020000978a300f7ff32000001eb00f1
:100ca00002003700828171000a017800a500070068
:100cb0000cf0a70001f0a000ee0037006420e10076
:100cc00002003a00838f6c00ee0033000801be0082
:100cd0000200be00e7003700140020004701370083
:100ce000f4ff2f00450137000001be00bb000700e4
:100cf0000470a70003f0a1006509b10016003200de
:100d00000d0035006828e10006003500f0ff2f00d7
:100d1000f1ff27000300e00013003b000100280062
:100d20000000050000004000818048008502e900c5
:100d3000fcff3a0008003700f88f420002003c0038
:100d40008000eb00000005008100d1000080d3008e
:100d50008502e800fcff3a000300e00002003b00cf
:100d600060001000e0801800000006000001be00d6
:100d70009a0007000470a70003f0a10003f8a30085
:100d800013003a006509b100100032000900350077
:100d90006928e1000200350001002800000005007c
:100da00000004000818048008502e900fcff3a0015
:100db00000000600f88f4200050035008100d100d8
:100dc0000080d3008502e800fcff3a000000060026
:100dd0008000eb00000005000001eb00e0000700d0
:100de000040032000200200003f8230001f0a700f5
:100df0005bff070000000600040020000000370031
:100e0000889fbe008a9fbe008c1f78004f26dd00a1
:100e1000870007008e0033006120e10043003200ac
:100e20006250e10041003e003e0039006420e100d4
:100e30003c003200058255000f003b000402e80030
:100e400038003a00800f5300818f5b00350034007a
:100e50000800be0003f0a10001f0a60003f0a0000e
:100e60000cf0a7003fff0700820037000603430095
:100e700087834b000c4646000005530081855b00cc
:100e8000020033000a03be000c00a0000402e900c7
:100e9000f6ff3b00850578000602430087824b0081
:100ea00004003a006000b80009f0a70001f0a000bb
:100eb000700037000002520081825a000704e000ef
:100ec000040033000603430087834b008b05e900d1
:100ed000faff3700090578000604be000203be00d1
:100ee0006011b80017000700e00f5200e08f5a00b1
:100ef0000700350002003c000c08a300040032008b
:100f00000601be0003f0a0000cf0a70015ff0700cb
:100f10000a85680001f0a1000af0a70001f0a00016
:100f2000540037000800be005200370010022000b5
:100f30000cf0a60020538800520037000400200067
:100f4000ae00370081002000618055000b003d009d
:100f50000b00200061fe2f000100e1001d003400a5
:100f600082817100610164008904d1000884d3008a
:100f70000000e800faff3a00710020006100640000
:100f800003007000020060000900320061044400a8
:100f9000e0844c000988a500050032008b05e800bc
:100fa0006808e10002003a008904d1000884d300f7
:100fb000f20f20000258e10005003d00c75ddd0092
:100fc000f907b2008980750008007800000006006b
:100fd0000bf827008b00780000000500c70ade0030
:100fe000f107b200f50fb20008003200e1cf420075
:100ff000020032000170a00024000500810f700083
:10100000010032000408050044000500810f700053
:1010100002003a00140005008502e90000004000cb
:1010200081c04800fcff3b000170a00024000500c7
:101030000004be00e9ff07000003be000405be0077
:101040000200be00e5ff0700844f750000000600a7
:101050000200be006450e100050036006420e1009b
:10106000020036000968a30001003a000800be0033
:101070000160a0004f0678004f05be004f04be007f
:1010800000000600f0ff2f00f1ff2700f9ff3700f6
:10109000889fbe008a9fbe008c1f7800e4ff070077
:1010a000ebff330003866c006450e1002400320043
:1010b0006420e100270032006150e100220032008c
:1010c0006120e100210032008b854200eb07b10076
:1010d0000134b800003ab8000804420089844a008c
:1010e000013ab8000030b8008880400009014a0089
:1010f00004003300000040008180480002014900e4
:101100008b05e900c909dd00830170000100320090
:1011100013002000c814de004814dd004709de007b
:101120001200b200c808de000884700085ff0700c6
:1011300001f0a1000cf0a70001f0a000cdff3700e6
:101140006120e100cfff32000801be000200be00b6
:10115000f7ff37006150e100fcff3a00c9ff37009c
:10116000889fbe008a9fbe000003be009bff070051
:101170008505780082815200020020006220e10093
:1011800004003a00f307b100040035007718e100cd
:10119000040035000600be00140037006000b800ef
:1011a0000f003700f50f2000faff2f008502d10055
:1011b0000a85d3008301e900fcff3b0081846200c3
:1011c00000046500890f7400f2ff32008582ea0096
:1011d0000a85ea00818462000004650059ff070067
:1011e00007f0a70001f0a0000081eb000200e00082
:1011f0004f05be004f04be0000000600889fbe00e1
:101200008a9fbe00841f780089ff07004f00780086
:1012100011003300f0ff2f00838f6c0006003b00ad
:10122000040565000a00a7000800370009f0a600c1
:101230001000200008003700820f5400838f5c00ec
:10124000030039001000200001003e0000002000d3
:1012500009f0a7000000ea004f05be004f04be00e1
:101260000000e00000000600ea874700889fbe00fb
:101270008a9fbe00810578008c9fbe008e1f78007b
:10128000e08f550001003200800d780000057800e5
:101290008a047800090578003a06fb000c00780003
:1012a000f7fd0700e00f5000f9ff3a00d4022000dc
:1012b000840f560003003a008a04780018c0b30077
:1012c0000500370000447800b4022000840f560067
:1012d00001003a008a0478008006eb006000b80044
:1012e0000d0578000ecdb300e4c2b3000100370055
:1012f0008904e800890278007003640004003a0061
:10130000994f120002003a000844a000f8ff37008d
:10131000194678000c03fb000603b100e90f5300e7
:1013200017003e000814a0008802fb00e98f560059
:101330000f003200f0826200010032000a05e9006d
:10134000e4b79f00a2002000030020008d06e80003
:10135000d10907000e4346006fb297000683fb00d9
:10136000070020000000430081804b00e0ff3700b1
:10137000f0826200deff3a000a05e800dcff370079
:1013800054c6b300844f5600040032008006eb00c0
:1013900054c4b300844f56002e003a0059427800de
:1013a000d5c2b300854f520002003a000834a000b5
:1013b00003003700b5c2b300854f520001003a0068
:1013c0008904e80007c3b300890278008504780027
:1013d00004c3b30039437800874f5300faff32004b
:1013e0008603fb008006eb000703b100e98f530082
:1013f00015003e00890278008446530015437800aa
:101400008d86fb008603fb000703b100e98f5300c4
:101410000d003e006a69b9008446530055437800c8
:101420008d86fb008603fb00828646000703b10021
:10143000e98f530004003e006a69b90084465300f6
:101440008d86fb008286460068026400010032003f
:101450008d06ea00e08f550003003200620264004e
:1014600001003200850d7800b90807006011b8004e
:101470000002be000003be00e4b79f00d5b79f0086
:10148000f4b79f0087bf9f0013fe07006fb297005d
:1014900000017800dfb297006000b8007fb39700ca
:1014a0008fbb9700e00f5100600032000a854600b4
:1014b00032f82f00820f550003003d002402200067
:1014c000245388005900370000082000800f550081
:1014d00007003400240220006104640024538800c3
:1014e0004d0032000000200001f82f004f003700af
:1014f000e00f55001f003d000a05ea000600370016
:101500000400be00922f2000530125006a055500fb
:10151000b30707000002be00e90f5500f8ff3c00ca
:10152000060037000400be00020020000312240061
:101530000a05e900aa0707000002be00e00f5500f7
:10154000f8ff3a000403be00020020000308200058
:1015500087bf9f000400be00f4b79f00defd0700b8
:101560007fb397008fbb9700e00f500025003d0030
:101570001f003700e00f550007003a002100370038
:101580000400be00922f2000530125006a0555007b
:10159000bffe07000002be00e94f5500f8ff3e0005
:1015a000060037000400be000200200003122400e1
:1015b0000a05e900b6fe07000002be00e00f550074
:1015c000f8ff3a000403be00f2ff2f00f3f72700f4
:1015d00087bf9f000400be00f4b79f00c0fd070056
:1015e0007fb397008fbb9700e00f500005003400d9
:1015f000610464000b003200000020000108280094
:101600000a003700610464000100320007f0a20004
:101610000600be00050037000000200001f827008a
:101620000200370000002000010820004f0778006a
:101630004f06be004f05be004f04be00af00b10014
:101640000000060008ff37008000eb0006ff3700af
:101650000002780002003700015a78000201e90018
:10166000e00f5100fcff3a00000006000c00fa00f9
:10167000889fbe00f4ff270000047800d4bf9f00bd
:101680008004eb0088bf9f0099bf9f00a8bf9f0008
:10169000240c200078815700b4bf9f00cfb0970082
:1016a00070805700c40007000fba9700094a7800fd
:1016b0000fba9700080052004f04be000080fa00e5
:1016c00000000600d4c6b3000800fa00889fbe00e0
:1016d0000084fb008a9fbe00844f50003400360017
:1016e00069b120004b062000110009000b84d800ce
:1016f000720040004300dd00008044008105780056
:101700006022b8000600200007fe2300aa00200087
:101710005001be004000be00580807000002be0095
:10172000110009008a85d80080057800e985450008
:10173000c35ddd008b8544000203be0084bf9f00b3
:1017400095bf9f00a6bf9f00b7bf9f003b02be0092
:101750002b03be000fb897009fb897002fb99700d2
:10176000bfb99700450807000002be00110009003c
:101770000a84d800010478004344dd0088844400d2
:101780000203be0084bf9f0095bf9f00a6bf9f00bd
:10179000b7bf9f003902be002903be000fb89700f3
:1017a0009fb897002fb99700bfb997001d00370069
:1017b000ea4f500013003600aa00200069b1200053
:1017c000110009000a84d80001057800690440006e
:1017d0004355dd004344dd00088444008a8444000e
:1017e0006022b8000600200007fe23003800be007b
:1017f0002801be00210807003902be002903be00ef
:101800000800370064b120004344dd0008044200b2
:101810006022b8000600200007fe23003800be004a
:101820002801be00150807004f05be004f04be008a
:101830000080fa0000000600d4c6b3000800fa00d9
:10184000889fbe008a9fbe00e04f500022003d00ee
:101850000040ea000004fb00844f50000a003400fe
:1018600044062000a9002000110009000404d8004b
:101870006ab12000110009008900d800e900400089
:10188000c308dd0020003700ea4f50000f0034008d
:10189000a4002000110009000404d80064b1200055
:1018a000690040004300dd0000004200430cdd0001
:1018b000080242005001be004000be005403be00ba
:1018c0004402be00ed070700370037004344dd0047
:1018d00064b12000310037000004fb00844f500049
:1018e0002300340044062000a90020001100090054
:1018f0000404d8006aa62000110009008900d8005d
:10190000e9004000c308dd00810045008b0920008c
:101910008a8545003102be002103be003b00be00a7
:101920002b01be00d50707000002be001100090010
:101930000904d800010478004344dd00080545008f
:101940000203be0084bf9f0095bf9f00a6bf9f00fb
:10195000b7bf9f003a02be002a03be000fb897002f
:101960009fb897002fb99700bfb99700d5ff3700f0
:10197000ea4f500007003400a400200011000900c5
:101980000404d80064a62000690040004300dd0084
:10199000c5ff37004344dd0064a620000804420070
:1019a0003800be002801be004f05be004f04be0037
:1019b0000080fa0000000600ef04b000889fbe001f
:1019c0008a9fbe008c9fbe00000678008e1f7800a4
:1019d0008006eb0091a79f00e2a79f006000b8007f
:1019e0006011b800a0a79f00b1a79f00c2a79f00e9
:1019f000d3a79f00050537009fa0970054c2b300ee
:101a00008100e80091a79f00844f500006003a0033
:101a1000810378000002eb0000c3b30001c2b300f1
:101a2000b2c2b3000e0037003c0290000404b200c2
:101a3000040032001c027800004a7800040ee8001e
:101a4000050037000000fb008c007800fb04070055
:101a5000e10f4000ed0432008d06e800eb04370092
:101a600087027800d3c2b30037437800834f530016
:101a70000900320005003c00814f5300080032008d
:101a8000824f53000c003a0007003700804f53008c
:101a900009003a00060037000430a000f0ff3700cc
:101aa0000400a000eeff37000410a000ecff370098
:101ab0000420a000eaff3700e203620001003200c8
:101ac0000400a100e8036200010032000420a1002c
:101ad0008603fb000703b100e98f53000d003e00b1
:101ae000050378000000eb00b602fb006a00b900b5
:101af0000503b1009603fb00008042000703b1001c
:101b000086027800e98f5300f7ff3600b0af9f00e0
:101b10000a0037008003eb00b7af9f00a7c2b300f5
:101b2000874f530005003a006fa097008502e80038
:101b3000c0007800e0a79f00b1af9f00e6c2b300ed
:101b4000954f130017003a0004e0a00064435300cf
:101b5000d54f130003003200050378000000eb00ae
:101b600009003700efa197008502e80043037800e1
:101b7000e3a79f00f6af9f00c0c6b3000d0037007b
:101b80006a00b9000080430086027800b603fb00bb
:101b90000703b100e98f5300f9ff3600f0af9f0053
:101ba000f5ff37008003eb0004c0a000f7af9f00f3
:101bb000f1ff37003543780095a79f00804f530011
:101bc00016003200c5c6b300854f530009003c0023
:101bd000e9c25200854f530080003200e3c2420048
:101be000854f530013003200e04f53008c04320045
:101bf0009b00370055c7b300854f53009d0032004e
:101c0000e3c24200854f53000d003200e5c252008e
:101c1000854f530092003a000c003700f003620039
:101c200006012000010032000600280004027300b3
:101c3000e0ff3700e6679f0004a0a0008f00370098
:101c4000e6679f000470a0008c0037006fa197002a
:101c5000e6679f00c2027800e2a79f0005047800b3
:101c6000e08f520001003a00a8c820000803780065
:101c70008002eb00010037008502e800e6c37a002d
:101c8000e0cf5300fcff3a0085047800ffa99700dd
:101c9000e08f510003003200898f510001003100b4
:101ca000830478000007eb003fab9700890f5300d7
:101cb000010036000907530068026200b4b79f00b4
:101cc0002a003a0004c2b30010003700bc029000a2
:101cd0000504b200040032009c027800844a7800b7
:101ce000050ee8000700370084bf9f008c007800d5
:101cf00000022000510407000fba9700e10f4000d6
:101d0000010032008d06e8000e07e900e00f5700e1
:101d1000eeff3a000087eb00140037003c02900011
:101d20000404b20009003200080278001c037800a5
:101d3000b4427800054b780004047800060ee800f1
:101d4000e0cf520008003a0008003700080278008f
:101d50008c0078003400fb0004047800370407008e
:101d6000e10f4000010032008d06e8000902780012
:101d70008404e900e00f5200e8ff3a00bfb3970087
:101d800004c2b300e08f530011003a001f04370073
:101d9000bc0290000504b200040032009c027800ee
:101da000844a7800050ee8000700370084bf9f00d2
:101db0008c00780000022000200407000fba970072
:101dc000e10f4000010032008d06e8000e07e90037
:101dd000e00f5700eeff3a000c0437006fa09700a9
:101de00070036200c0027800e0a79f000500780041
:101df000cf80de000101780082017800b0b79f003b
:101e0000c1b79f00d2b79f00e3b79f004800de0034
:101e1000c80add0000807200e0679f00e00f5300f9
:101e200009003200e04f500007003200e14f40004f
:101e3000050032006fe39700f0679f00866f9f00f8
:101e40002900200003003700efe39700190020006d
:101e5000f7679f0078fa2f000f0444008bff3700cc
:101e6000e6679f0068fa2f000f0444001900200065
:101e700086ff3700e6679f00040cb300b4b79f00ed
:101e8000047020003fb0970004026000420232005c
:101e90000400210004026000020032006100200002
:101ea000f1af9f003fb19700700261000500320062
:101eb0006fa097004003be004002be00e0a79f0055
:101ec000060037006fa197004200be00e2a79f0006
:101ed000cf0507000002be000203be00f4a79f006a
:101ee00085af9f0096af9f00a7af9f006022b8000c
:101ef0006033b8007fa097008fa897001fa99700b4
:101f0000afa99700d2040700e00f50000c003d007d
:101f10007fa097008fa897001fa99700afa99700ef
:101f200003f0a200f0a79f0081af9f0092af9f0037
:101f3000a3af9f00bfb097003100b300b1b79f00bf
:101f40000002eb007fa097008fa897001fa99700c1
:101f5000afa99700d4979f006022b8006033b80003
:101f600061050700e00f500034003200a4fa2f0092
:101f70000f0242007fa097008fa897001fa997002b
:101f8000afa99700200607005f909700a4002000eb
:101f90000000e9006300b900110009000400d80046
:101fa000d0979f00e00f500002003d000000e900c4
:101fb000d0979f005f9497000840ea001efe07003c
:101fc0007fa297008faa97001fab9700afab970037
:101fd0002a0607000002be000203be00a4a79f005d
:101fe000b5a79f00c6a79f00d7a79f006022b80093
:101ff0000600200007ff230095040700e00f5000b3
:1020000002003d000804e9000b0037006022b80020
:1020100006002000470224002fa09700bfa09700d1
:102020004fa19700dfa197008e040700e00f50003a
:10203000020035000804e800d8979f00ffaa970027
:10204000f88f52000f003c00054078009dfd07000e
:102050000002be000203be007fa097008fa8970079
:102060001fa99700afa99700fc0307000002be005c
:102070000203be00f4a79f0085af9f0096af9f00ac
:10208000a7af9f005f949700e90f540015003c0034
:102090006022b8006033b8007fa097008fa8970037
:1020a0001fa99700afa997000f050700e00f500088
:1020b000320032007fa097008fa897001fa99700d9
:1020c000afa9970071050700e00f5000e08f58009e
:1020d000e00f5900e08f590028003a00e10f54004a
:1020e000260034000400200005002e00b6e0220087
:1020f000170124002fa09700bfa097004fa19700c1
:10210000dfa1970052040700e00f500002003d00dd
:10211000730454000100370072045400d8979f00e4
:102120002f689700c4fd07000002be000203be0036
:102130007fa097008fa897001fa99700afa99700cd
:10214000a4a79f00b5a79f00c6a79f00d7a79f0081
:10215000490407004d0507000205be000004be004b
:102160006000b8006011b800f0a79f0081af9f0029
:1021700092af9f00a3af9f00170037007fa097008a
:102180008fa897001fa99700afa997003f050700e8
:102190000205be000004be00700507000002be007c
:1021a0000203be007fa097008fa897001fa9970089
:1021b000afa99700260607000002be000203be007a
:1021c000f4a79f0085af9f0096af9f00a7af9f0029
:1021d0000002eb00d4979f00e1bc200010c0b300c8
:1021e000080037003102be003103be000440e100a8
:1021f00005c8e10006d0e10007d8e100030039007e
:102200000040e800f44f5000f6ff3a00e0679f00fe
:102210005f929700bfaa97007fab9700048252009d
:102220000000fb000602520000075200e00f5300be
:10223000010032000e07e900bfb39700638263001c
:10224000010032000e07e9003fb097006402600011
:102250003b00320062026000e1026000e00f5200c9
:10226000110032003c0290000404b2000800320069
:102270001c037800b4c2b300e08f520001003200aa
:1022800004c2e800044b7800060ee8001500370091
:10229000b0022000e08f5200010032000080e80010
:1022a0008c0078000c003700e08f520020003200d4
:1022b0003c0290000404b200050032009c02780049
:1022c00004c2b300844a7800050ee8000500370018
:1022d0008c00780000022000d8020700e10f4000c7
:1022e000130032008d06e800110037003c02900018
:1022f0000404b200040032001c027800054a780091
:10230000040ee80007003700f5b79f008c00780046
:1023100000032000c9020700ffb29700e10f400050
:10232000010032008d06e8000e07e90001003700c9
:1023300005c3b300e00f5700ecff3c006500370019
:10234000bfb097006882600015003a0011003700a6
:102350003c0290000404b200040032001c02780029
:10236000054a7800040ee80007003700f5b79f0023
:102370008c00780000022000b0020700ffb2970036
:10238000e10f4000010032008d06e8000e07e90071
:102390000100370005c2b300e00f5700ecff3c001e
:1023a0003fb1970062026100e1026100e00f52005c
:1023b000110032003c0290000404b2000800320018
:1023c0001c037800b4c2b300e08f52000100320059
:1023d00004c2e800044b7800060ee8003c00370019
:1023e000b0022000e08f5200010032000080e800bf
:1023f0008c00780033003700e08f52003500320047
:102400003c0290000404b200040032009c027800f8
:1024100004c2b300844a7800180037008c007800aa
:1024200000022000270037003c0290008502fb00dc
:102430000404b2001300320064bc2000c32add0093
:10244000850242009c0178005503be004502be0093
:10245000b3af9f000800be000a01be003f060700a0
:10246000a4002000050020006033b80042060700e9
:1024700006c3b300bfaa9700864a4000050ee800d5
:102480001300370067bc2000c32add0085824300ab
:102490000800be000a01be005503be004502be0092
:1024a0002e060700a4002000050020006033b800bd
:1024b000310607008c00780004032000000242006f
:1024c000040078005d020700e10f400001003200c7
:1024d0008d06e8006f6297008442e900e5679f007f
:1024e000e04f5200d0ff3a00110037003c0290004c
:1024f0000404b200040032001c027800084a78008c
:10250000040ee800050037008c007800000320006e
:102510004a020700e10f4000010032008d06e8008a
:102520005f9297000402e900d4979f0001003700f2
:1025300008c3b3005f929700e00f5200ebff3c002e
:102540007fa89700f20f50000300340024c1b300ad
:10255000e4679f0002003700efd89700e1679f0013
:102560006f6297007fa997008402fb0085025100eb
:10257000b5af9f00e04f52000e0032003c029000c9
:102580000404b200050032001c027800e5c2b3006a
:10259000054a7800040ee800050037008c0078003a
:1025a000e002200025020700e10f40000100320098
:1025b0008d06e8006f6097009ffc07000002be00d8
:1025c0000203be007fa097008fa897001fa9970065
:1025d000afa99700a90407002c04070035003700b5
:1025e0003c0290008502fb000404b200130032009c
:1025f00064bc2000c32add00850242009c017800f3
:102600005503be004502be00f3af9f000800be00a8
:102610000a01be00d1050700a4002000050020002b
:102620006033b800d4050700ffaa970006c3b300c3
:10263000864a4000050ee8001300370067bc200002
:10264000c32add00858243000800be000a01be00e7
:102650005503be004502be00c0050700a4002000cf
:10266000050020006033b800c30507008c00780027
:10267000040320000002420004007800ef0107007c
:10268000e10f4000010032008d06e8006f60970006
:1026900061bc20000002fb004322dd0004824000f8
:1026a0000800be000a01be005403be004402be0082
:1026b000b10507006f6297000205be000004be006e
:1026c0008442e900e5679f00e04f5200c4ff3a00f2
:1026d00011003700bc0290000504b2000400320073
:1026e0009c027800844a7800050ee8000700370055
:1026f00084bf9f008c00780000032000cf010700fa
:102700000fba9700e10f4000010032008d06e8008b
:102710008904e90006003700bfac9700f0af9f00c6
:1027200081b79f0092b79f00a3b79f0004c3b30077
:10273000e08f5400e7ff3a00bfb097006882600066
:10274000b2013200e00f5700b001340004c2b30000
:10275000bc0290000504b200040032009c02780024
:10276000844a7800050ee8000700370084bf9f0008
:102770008c00780000022000b00107000fba97001b
:10278000e10f4000010032008d06e8000e07e9006d
:10279000efff3a009d0137003fb19700e00f510075
:1027a00005003d00efa197004305be004304be00b5
:1027b000e3a79f00150037003fb39700f0026300c6
:1027c0000c0032006fa197004200be00a49f9f0042
:1027d000809f9f00919f9f00b49f9f00e2a79f0052
:1027e0000f9c97009f9c97002f9d9700bf9d97007f
:1027f000060037006fa2970044047800e4a79f000a
:10280000090020000a0020000b002000ffaa97000a
:10281000e08f520009003a0016002000f6af9f003a
:10282000e00f5400e08f5c00e00f5d00e08f5d0082
:10283000020032008003eb00f7af9f003fb097002b
:1028400004082000000cb200f0a79f00840f500085
:1028500010003200040c2000840f500021003a00c8
:10286000e5bc200014c0b3003500be003501be0039
:102870000040e10001c8e10002d0e10003d8e1001e
:10288000170039000442e800f44f5200f6ff3a0006
:102890001300370014c0b300000120000100200025
:1028a0006011b8000040e10001c8e10002d0e10081
:1028b00003d8e1000a003900450020000000d000e4
:1028c0008180d2000281d2008381d2008502e9009a
:1028d000faff3a000442e800f04f5200f1ff3a00dc
:1028e000e4679f006f639700ffab97000602fb0051
:1028f000870f520002003d00e7679f000400370089
:102900007fa89700840f500001003d00f4af9f00a6
:10291000bfa89700e08f5000050032003fb197003c
:1029200063026100020032008100e900b1af9f0044
:1029300004002400bfb19700048261000900320046
:102940003faa9700ffaa9700850f520003003400aa
:1029500005025200b4af9f00020037000003eb00f5
:10296000b6af9f00ef6397000007eb000702fb0084
:102970003fa89700840f5000010034000407500066
:10298000bfb09700648260003a003200e2826000cb
:1029900061826000e08f520011003200bc029000a2
:1029a0000504b200080032009c027800b6c2b300f1
:1029b000e00f52000100320006c3e800864a7800aa
:1029c000050ee80015003700b0022000e00f5200ad
:1029d000010032000080e8008c0078000c00370015
:1029e000e00f52000e0032003c0290000404b200de
:1029f000050032001c02780005c2b300054a7800c9
:102a0000040ee800050037008c007800000220006a
:102a10000a010700e10f4000010032008d06e800c6
:102a2000e00f57005000320004c3b300bc02900016
:102a30000504b200040032009c027800844a780049
:102a4000050ee8000700370084bf9f008c00780067
:102a500000032000f90007000fba9700e10f4000c3
:102a6000010032008d06e8000e07e900efff3a0092
:102a70003d003700e00f5700150032003fb19700ce
:102a80006802610012003a0004c2b300bc02900068
:102a90000504b200040032009c027800844a7800e9
:102aa000050ee8000700370084bf9f008c00780007
:102ab00000022000e10007000fba9700e10f40007c
:102ac000010032008d06e8000e07e900efff3a0032
:102ad000bfb19700e282610061826100e08f520025
:102ae00011003200bc0290000504b2000800320060
:102af0009c027800b6c2b300e00f52000100320021
:102b000006c3e800864a7800050ee8001500370085
:102b1000b0022000e00f5200010032000080e80007
:102b20008c0078000c003700e00f52000e003200dd
:102b30003c0290000404b200050032001c02780040
:102b400005c2b300054a7800040ee800050037000e
:102b50008c00780000022000b8000700e10f400060
:102b6000010032008d06e8007faa97000e00780071
:102b70008402e900bfb39700422bdd0064bc200053
:102b8000c32add00f083630004824200c69f9f00d9
:102b9000f7979f00e0979f0004077800b8af9f0069
:102ba000c9af9f00daaf9f00ebaf9f007c003700fa
:102bb000ffaa9700040820008502e9007fa3970080
:102bc000f5af9f00840f530050003200040c20002a
:102bd000840f53005d003a00bfb39700e08f5300ad
:102be0001a003d003e04be002e05be003fa897001f
:102bf000cfa897005fa99700efa997000802be0031
:102c00000a03be00550407000802be000a03be0006
:102c1000e0679f000000fb00cf80de00010178002c
:102c200082017800b60407003faa9700cfaa970058
:102c30005fab9700efab97000002520081825a0011
:102c400002035b0083835b001f003700ff92970045
:102c5000e08f5200210032003faa9700cfaa9700d0
:102c60003e04be002e05be000400be0084bf9f00cf
:102c7000f5b79f000801be00770307000801be00fa
:102c8000e0679f000000fb00cf80de0082030700aa
:102c90000fba9700ffb297000003520081835a00d9
:102ca0000000eb00d69f9f00e79f9f0080a79f003a
:102cb0008003eb00f79f9f005f9a9700ef9a9700c1
:102cc0007f9b97008fa39700b4af9f00c5af9f0075
:102cd000d6af9f00e7af9f00080037001e027800c4
:102ce000bfaa9700110009008482d800a400200028
:102cf000110009000480d800e1679f006f6397000e
:102d00000643b000e6679f00100037003faa970017
:102d1000cfaa97005fab9700efab97004f98970053
:102d200011c920000000e900050033008703d1002d
:102d30000683d3008582d3000482d300f9ff3700d5
:102d40006f02620061427a00e4679f003c029000db
:102d50000404b200070032009c0278006f62970002
:102d6000844a7800050ee800e04f520007003a0060
:102d7000070037006f6197008c0078000200fb00ad
:102d80002e000700e10f4000010032008d06e80030
:102d9000cf999700e4815100c39f9f0068075700b7
:102da0007faa9700e00f520081ff3a00bfb2970060
:102db0006f9797006882620014003200e00f57009e
:102dc0001200340004c2b300bc0290000504b2003b
:102dd000040032009c027800844a7800050ee80066
:102de0000700370084bf9f008c007800000220009d
:102df000120007000fba9700e10f400001003200f7
:102e00008d06e8000e07e900efff3a001fa39700c8
:102e100016407800e0679f00e04f5000f6fa3a0055
:102e20004f0778000d0078004f06be004f05be002a
:102e30004f04be00ef04b10000000600889fbe00f2
:102e4000010478008084eb0038029000e202620006
:102e50003b00320004037800980290000620b20084
:102e600002003a00e08f520035003a000490a000c2
:102e70008004780034049800f90fb200e08f52000b
:102e800002003a00a8029000050c7800ea8f540076
:102e900005003a000408b20003003a0088007800f8
:102ea000d0002000e5ff070018029000d802900033
:102eb000850f52000b0032000402e80015c0b30079
:102ec0001404980018027800094a7800040ce800fd
:102ed00044ca2000054a7800ea8f540018003a00de
:102ee00005003700094078008800780017000700c7
:102ef0008004780012003700380290000410b200fd
:102f00000f00320018019000a800900048009000c7
:102f1000e3f6070018029000840f5000040032000e
:102f2000380290000403b300340498008084eb005e
:102f30000002eb001404980028029000040c7800b2
:102f4000090078004f04be00000006000200fa00ed
:102f5000889fbe0001047800a0ff9f003802900007
:102f6000840278000504b200020032000000fb0079
:102f700035003700e202620005003a000403b300a6
:102f800015049800340498000080eb002e003700f0
:102f9000d8049000e08f540006003a001200200090
:102fa000e680570048009000bdf60700190498001d
:102fb00023003700a8029000e08f520008003a007a
:102fc00085ca20000430a00025049800050c780074
:102fd000340498002500200055049800150498003a
:102fe00018019000a800900048009000acf607007f
:102ff000280290008082eb0015049800affa970039
:10300000054a7800040ce8002ffa9700ea4f5200b6
:103010000b003a00380290000410b20008003200a1
:1030200018019000a8009000480090009cf607004e
:103030000002eb00a802900014049800050c780030
:103040002ffa97000400fb004f04be000080fa0036
:103050000000060000c0da00000006002800fa00a8
:10306000889fbe008a9fbe008c9fbe000706780026
:10307000878669000c003b00030478008704780011
:1030800008f0a10009f0a100840f5000858f5800be
:10309000860f5900890f5c00030033000cf0a2007a
:1030a00001003a000cf0a100400107006400e100bb
:1030b0005f003200780147006408e10061003200df
:1030c0006c014700748557003200be001201be003b
:1030d0003a04be001a05be001e039000be0a90000e
:1030e0008503530006003d000004fd008104fd003f
:1030f0000205fd008305fd008703ea000503780053
:103100000df8a3000400320060041400e0841c00e9
:1031100060051d00e0851d006022b8007d032000d1
:103120000d38e1008006eb000b0039004433dd0070
:10313000f300b2008301730039003700848272000b
:103140000d027800e10664008b85d1000a85d3006a
:103150008984d3000884d3008703e900f7ff3b008c
:1031600008004000898048000a0149008b8149001d
:1031700004003b0060001000e080180060011900ae
:10318000e08119000358a300090032008d8272000b
:1031900084827200610260008301d1000281d30049
:1031a0008180d3000080d3000603e8001b003700b5
:1031b0000348a30017003a000600e000170034009f
:1031c0000603e9000d00a3000000480081804800cc
:1031d00002014900838149000348a3000f003a001f
:1031e0000600e000090034000603e900000040008a
:1031f00081804800020149008381490001003a00b2
:103200000003eb000348a300f5ff32006022b80082
:10321000020037008482720061826600b7000700f6
:1032200003f0a1000cf0a70003f0a000f3003700aa
:10323000640147006408e10002003a000df8a300b1
:10324000eb003a003200be001201be00eb00370076
:103250008f1fd100530307008f87e9000000e000b3
:1032600000000600809feb004e0307008f87e900f7
:103270000000e000000006002800fa00889fbe0061
:103280008a9fbe008c9fbe0003866b00c7000700ac
:103290006400e100440032006408e1004a003200aa
:1032a0006100e100460032006108e100490032009f
:1032b000ec0647006000b8003d02be003d03be00c2
:1032c000f48657006011b8003d04be003d05be0005
:1032d0007d0320000b0037000000a0008d06e900f0
:1032e000130032000402420085824a0006034b00ac
:1032f00087834b00000040008180480002014900a4
:10330000838149000802520089825a000a035b0047
:103310008b835b00f0ff3b000802420089824a0079
:103320000a034b008b834b008d06e900edff3a004a
:103330008482720086827200f707b2008782720070
:1033400001003200150020001e0490003e0b90008a
:1033500006035400e63fb0000368a30007003200f4
:103360000000a7000500a0008301d1000281d30066
:103370008180d3000080d3000603e8008301d100e0
:103380000281d3008180d3000080d3000002eb00d3
:103390000482d2005900070003f0a1000cf0a7003e
:1033a00003f0a00095003700640247006408e100c4
:1033b0008f0032003400be003401be00f6ff37003b
:1033c0006108e1008a0032006011b8006000b800b6
:1033d000f1ff370003ff270002002000fbff37004a
:1033e000889fbe008a9fbe008c1f780010f70700e0
:1033f00017f7330003866c006450e1002e003200a2
:103400006420e100330032006150e1002f003200ff
:103410006120e1003100320085855500eb07b000e6
:1034200009002000080420000500370008044400bb
:1034300089844c000a0031000603430087834b0057
:103440000001530081815b00f8ff33000203be00de
:103450000800a0000804440089844c00f6ff3900ed
:10346000c639dd0083017300010032001300200023
:103470008904d1000884d3000998a3000500320014
:103480000800a7000300a0008904d1000884d3002d
:103490008b05e8008904d1000884d3000001eb000b
:1034a0000281d200a7f6070001f0a1000cf0a700ee
:1034b00001f0a000eff637006420e100f1f63200e1
:1034c0000801be000200be00f7ff37006120e100e6
:1034d000ecf632006000b800f3ff37000000200077
:1034e00001f82700f0ff3700801feb00ad02070056
:1034f0008f87e9000000e0000000060018002000af
:1035000057002000080453000d003d000600200075
:1035100097fc2f000740e1001e00340084827200f7
:10352000610260008301d1000281d3008180d30059
:103530000080d3000804e800f8ff3a0047002000ac
:103540006104600005047400040464000d0032008e
:1035500061004000e080480060014900e0814900ce
:1035600003b8a500070032000603e8006538e10053
:1035700004003a008301d1000281d3008180d3008e
:103580000080d300f87f20000830e1000300350000
:10359000080378006000b8006011b8004433dd0013
:1035a000f300b200830173000000060068044700c6
:1035b0000294be000094be00fc0447008694be0046
:1035c0008494be0009007800bf020700080078005c
:1035d000bd02070099007800814f70000b003b008e
:1035e0000800be00980207004f00b100030037003a
:1035f000f3ff2700f2ff2f006110b9004f06be0055
:103600004f05be004f04be000080fa000000060017
:103610008103780071f607000001be006000b80069
:103620000478a30013003a006220e10015003e0078
:103630000d0039008301d1000281d3008180d300c5
:103640008301d1000281d3008180d3008301d100a6
:103650000281d3008180d3000538b000c42add0088
:10366000f300b2008381720007f0a70003f0a0000e
:1036700000000600f3ff2700f2ff2f006110b900e1
:10368000fbff370003ff2700f7ff37001400fa00a5
:10369000889fbe008a9fbe008c9fbe000004be00b3
:1036a0000205be00680047000a90be000890be00f8
:1036b000850207000070a7000bf0a1000bf8a30023
:1036c00020003a009e0990000e099000fe00900034
:1036d0006e0090009e0290003443200084825200cd
:1036e000c6ff32000a003c00b4fc2f000428e100b1
:1036f000140034008301d1000281d3008180d30003
:103700000080d3008502e800faff3a00bbff3700d3
:10371000b40020000428e10007003c000000400045
:103720008180480002014900838149008502e90047
:10373000faff3a00b1ff3700030028000200200022
:10374000010037006011b8006000b800abff37001f
:103750004f89de008201780082023700889fbe0018
:1037600000827000040271000482710024003200a3
:1037700036432000c50020008383cf000a003900b3
:103780000541b1008283cf00070039000541b10037
:103790008183cf00040039000541b1008083cf0050
:1037a000010039000541b10085c353006022b80013
:1037b000120032000a003b00848272006102600045
:1037c0008301d1000281d3008180d3000080d30027
:1037d0000603e8008743e800f7ff3a0007003700d8
:1037e00000004000818048000201490083814900b7
:1037f0000603e9008743e900f9ff3a003fff0700ad
:103800004f04be00000006001400fa00889fbe00ae
:103810008a9fbe008c9fbe00040678000004be0094
:103820000205be00680047000a90be000890be0076
:10383000250207006200e1000800be000a01be0088
:10384000040020000b003a001e029000e43fb1008b
:103850006e009000fe0090000e0990009e099000fe
:10386000f300b20005fe2300858171000bf0a70074
:1038700003f0a000040e780060ff37002800fa0073
:10388000889fbe008a9fbe008c9fbe0003866b008f
:1038900046ff07000028a30064003a000128a300a7
:1038a00067003a000008a30062003a000108a30084
:1038b00065003a001e009000be089000810640009e
:1038c000ed3fb100f4805700ee019000111ab800ee
:1038d0008e099000311bb8009e099000311cb80081
:1038e000511db800f485570046000700fe01900006
:1038f0003a0007008b85e8003e0007008e09900023
:1039000040000700ee019000340007008b85e800be
:10391000380007008e099000400007009e099000c3
:103920001b18b800890440000a854800fe01900079
:10393000340007008b85e80038000700ee01900096
:10394000300007008e0990001b18b8008904400061
:103950000a8548000a98a30008003a0004024200c1
:1039600085824a0006034b0087834b0008044c0005
:1039700089844c000a054d008d06e900848272009e
:10398000850273004c3add008502720001003200ae
:1039900015002000443ade001400b2004538de0075
:1039a000cb45dd000b007000c540de00cb4ddd00d7
:1039b0008b8070004549de00cb55dd000b017100a6
:1039c000c551de000d037800ccfe070003f0a10016
:1039d0000cf0a70003f0a00008ff37001b18b80088
:1039e0008502400006834800e0834b0060044c00e1
:1039f000070037001b18b800060340008783480003
:103a0000faff37001b18b8008703400008844800fd
:103a1000e0844c0060054d00000006001b18b80053
:103a20000804400089844800faff37000108a30019
:103a3000effe3a005800be005801be00e3ff370019
:103a40000008a300eafe3a0009047800f9ff3700f5
:103a500007f0a20081fd37006022b80006022000b6
:103a60000000d0008180d2000482d2008582d20082
:103a70000000a0000202520083825a0003003100bd
:103a80000202420083824a000000a1000603e9000e
:103a9000f3ff3a0000000600020ab900001bb9005b
:103aa0000200b800810042008100430000000600cf
:103ab000889fbe008a9fbe003004be002005be0065
:103ac0000404440085844c0006054d0087854d00a4
:103ad0000898be000a90be000440e10005c8e1005d
:103ae00006d0e10007d8e100020031006800400084
:103af0001008e8004f05be004f04be00000006009d
:103b00001000fa00889fbe008a9fbe0011002000ae
:103b10000605be000404be003002be002003be0045
:103b2000c4b79f00d5b79f00e6b79f00f7b79f00c7
:103b30000802520089825a000a035b008b835b00f3
:103b400084bf9f0095bf9f00a6bf9f00b7bf9f0087
:103b50000498be000698be004fb29700dfb29700ef
:103b60006fb39700ffb397000820e10009a8e100b8
:103b70000ab0e1000bb8e100010039008000eb0061
:103b80004f05be00108810004f04be000080fa00f0
:103b9000000006001400fa00889fbe008a9fbe0045
:103ba0008c9fbe000006eb003e000700ccb79f00d4
:103bb000bcb79f00acb79f009cb79f008cb79f001d
:103bc0000605be000404be000d0420004fb397009c
:103bd000bfb29700860343002fb29700e00f530057
:103be00004003d003d0007000f004000b0ff07004b
:103bf00003003700390007000f004000c0ff070036
:103c0000cfb2970095bf9f00e08f520009003500aa
:103c10002b00070014002000050020006033b800ce
:103c200000007200818072000201730083817300c2
:103c30001c0007000c06e8008d0f5600e3ff3a0059
:103c40001fba9700e00f520005003d000802be00b9
:103c50000a03be0000fe2f000f00400094ff070083
:103c60004faa9700e00f520008003a000fb49700e7
:103c70009fb497002fb59700bfb59700d8b79f00a6
:103c8000e9b79f00fab79f008bbf9f000c000700a9
:103c90004f06be004f05be004f04be000080fa0074
:103ca00000000600010007000000060090b79f001a
:103cb000a1b79f00b2b79f00c3b79f0000000600e6
:103cc00001000700000006001fb09700afb097008a
:103cd0003fb19700cfb19700000006004f2bde00e8
:103ce000f9ff070086837300858242004f23de00c0
:103cf000a7b79f00868272000402420095b79f001a
:103d0000ffaa97004f2bde00858242000602720058
:103d100084b79f006faa97004f23de000402420081
:103d200086827200f5af9f004f18de00000272001d
:103d3000e5ff0700e4af9f000000400081804800dd
:103d400002014900838149000802be000a03be0047
:103d5000d6ff070000fe2f0000000600881f780035
:103d600018002000881f78008aff07008f87e9006d
:103d70004f04780000000600801feb0085ff07005d
:103d80008f87e90000000600889fbe008a9fbe0062
:103d9000e00f5000e08f5800e00f5900e08f59000d
:103da0000c003d006044b8006055b80000005400ad
:103db00081805c0002015d0083815d0018002000ad
:103dc0001500070008003d00180007000004eb0084
:103dd000050037000004eb000f00070002003d0063
:103de0001200070018002000dcff0700e00f54005d
:103df000060032006022b8006033b80000005200b4
:103e000081805a0002015b0083815b004f05be0088
:103e10004f04be0000000600e00f5200e08f5a0081
:103e2000e00f5b00e08f5b00000006006044b8001c
:103e30006055b8000402540085825c0006035d00f2
:103e400087835d0000000600889fbe008a9fbe0039
:103e50008c1f7800e00f5000e08f5800e00f5900f1
:103e6000e08f59000d003d006044b8006055b80077
:103e70001c0020000000540081805c0002015d00f5
:103e800083815d000820e10009a8e1000ab0e1009b
:103e90000bb8e1000d003d00080037000006eb0004
:103ea000e00f5200e08f5a00e00f5b00e08f5b00f4
:103eb00006003d006044b8006055b800040254009c
:103ec00085825c0006035d0087835d00aaff070012
:103ed000e00f5600060032006022b8006033b800e0
:103ee0000000520081805a0002015b0083815b0068
:103ef0004f0678004f05be004f04be0000000600cc
:103f0000889fbe008a9fbe008c1f78000006eb00d1
:103f1000e00f5000e08f5800e00f5900e08f59008b
:103f200007003d006044b8006055b8001c00200048
:103f30000000540081805c0002015d0083815d000f
:103f4000e00f5200e08f5a00e00f5b00e08f5b0053
:103f500007003d006044b8006055b8000c00a200a6
:103f60000402540085825c0006035d0087835d00c7
:103f7000bb000700e00f5600060032006022b800c8
:103f80006033b8000000520081805a0002015b00db
:103f900083815b004f0678004f05be004f04be00d2
:103fa00000000600889fbe008a9fbe008c9fbe0056
:103fb0000404be000605be00809fbe00829fbe00b6
:103fc0002f000700040678000800be000a01be00aa
:103fd0002b000700840678004f03be004f02be008e
:103fe0008d4f76007fb0970013003300f0ff2f0055
:103ff0008b8f6b0006003b000d0666000c00a700cf
:104000000a00370007f0a600100020000a00370061
:10401000880f5200898f5a008a0f5b008b8f5b00dc
:10402000030039001000200001003e0000002000c5
:1040300007f0a7000000ea004f06be004f05be00d3
:104040004f04be0000000600e48240001078a30088
:1040500007003200640240001178a3003400be0063
:104060001401be00040032000330a7000000060067
:104070003500be001501be000330a00000000600a0
:1040800005ff270005826100070032000428e100d7
:1040900001003200240005000600070001003a007c
:1040a000440005000408050002000700f9ff3a007b
:1040b000140005006f8261008102700085027100aa
:1040c0008502720000000600800078005002be00e9
:1040d0005003be004439de00f700b200f37f200039
:1040e00003016100090032000218e10016003a00e5
:1040f0008501720083017300838173000008200032
:1041000015003a00400020001300370085017200be
:10411000830173008381730005003a0004a8be0088
:1041200006a8be00100020000b0037000201e900c5
:104130000402420085824a0006034b0087834b003d
:104140000748a300f9ff32000740a00004a8be0002
:1041500006a8be0020002000800098009200980071
:1041600000000600881f7800030478000300e000c8
:1041700007003d0060001000e08018006001190099
:10418000e081190002003b0001f02d000300370020
:104190000400070008f0a70001f0a0004f04780019
:1041a00000000600889fbe008a9fbe00008270004b
:1041b0000402710004827100260032000004be0077
:1041c0000200be006011b8006b09200095022000bb
:1041d0000182cf000a0039000541b1000082cf0002
:1041e000070039000541b1000982cf000400390001
:1041f0000541b1000882cf00010039000541b1003e
:1042000005425200120032000a003b008281710018
:10421000610164008100d1000080d3008984d30053
:104220000884d3008b05e8000442e800f7ff3a0059
:10423000070037000804440089844c00000048004f
:10424000818048008b05e9000442e900f9ff3a004b
:104250003cf307004f05be004f04be0000000600ff
:10426000889fbe008a9fbe008c9fbe000404b800d9
:104270000506b8008904460060854e000606b800b1
:104280000a054600e0854e000706b8008b0546008b
:10429000040eb800890446000a854e00e0854d00f2
:1042a000050eb8000a0546008b854e00060eb800c4
:1042b0008b0546000416b8000a0546008b854e00a3
:1042c0000516b8008b054600041eb8008b05460095
:1042d0000800be000a01be004f06be004f05be002a
:0842e0004f04be0000000600bf
:020000040000fa
:0200000401f009
:04000c00faff0000f7
:020000040000fa
:0200000401f009
:0400100078ff000075
:020000040000fa
:0200000401f009
:040014007fff00006a
:020000040000fa
:0200000401f009
:04001800fcff0000e9
:020000040000fa
:0200000401f009
:04001c00ddff000004
:020000040000fa
:100008003c0500003c0500003c0500003c050000e4
:100018003c0500003c0500003c0500003c050000d4
:100028003c0500003c0500003c0500009a02000069
:100038003c0500003c0500003c0500003c050000b4
:100048003c0500003c0500003c0500001c040000c5
:10005800de0300003c0500003c0500003c050000f4
:100068003c0500003c0500003c0500003c05000084
:100078003c0500003c0500003c0500003c05000074
:100088003c0500003c0500003c0500003c05000064
:100098003c0500003c050000cc0400008e04000074
:1000a8003c0500003c0500003c0500003c05000044
:1000b8003c0500003c0500003c0500003c05000034
:1000c8003c0500003c0500003c0500003c05000024
:1000d8003c0500003c0500003c0500003c05000014
:1000e8003c0500003c0500003c0500003c05000004
:1000f8003c0500003c0500003c0500003c050000f4
:100108003c0500003c0500003c0500003c050000e3
:100118003c0500003c0500003c0500003c050000d3
:100128003c0500003c0500003c0500003c050000c3
:100138003c0500003c0500003c0500003c050000b3
:100148003c0500003c0500003c0500003c050000a3
:100158003c0500003c0500003c0500003c05000093
:100168003c0500003c0500003c0500003c05000083
:100178003c0500003c0500003c0500003c05000073
:100188003c0500003c0500003c0500003c05000063
:100198003c0500003c0500003c0500003c05000053
:1001a8003c0500003c0500003c0500003c05000043
:1001b8003c0500003c0500003c0500003c05000033
:1001c8003c0500003c0500003c0500003c05000023
:1001d8003c0500003c0500003c0500003c05000013
:1001e8003c0500003c0500003c0500003c05000003
:0801f8003c0500003c0500007d
:020000040000fa
:100208003c0500003c0500003c0500003c050000e2
:100218003c0500003c0500003c0500003c050000d2
:100228003c0500003c0500003c0500009a02000067
:100238003c0500003c0500003c0500003c050000b2
:100248003c0500003c0500003c0500001c040000c3
:10025800de0300003c0500003c0500003c050000f2
:100268003c0500003c0500003c0500003c05000082
:100278003c0500003c0500003c0500003c05000072
:100288003c0500003c0500003c0500003c05000062
:100298003c0500003c050000cc0400008e04000072
:1002a8003c0500003c0500003c0500003c05000042
:1002b8003c0500003c0500003c0500003c05000032
:1002c8003c0500003c0500003c0500003c05000022
:1002d8003c0500003c0500003c0500003c05000012
:1002e8003c0500003c0500003c0500003c05000002
:1002f8003c0500003c0500003c0500003c050000f2
:100308003c0500003c0500003c0500003c050000e1
:100318003c0500003c0500003c0500003c050000d1
:100328003c0500003c0500003c0500003c050000c1
:100338003c0500003c0500003c0500003c050000b1
:100348003c0500003c0500003c0500003c050000a1
:100358003c0500003c0500003c0500003c05000091
:100368003c0500003c0500003c0500003c05000081
:100378003c0500003c0500003c0500003c05000071
:100388003c0500003c0500003c0500003c05000061
:100398003c0500003c0500003c0500003c05000051
:1003a8003c0500003c0500003c0500003c05000041
:1003b8003c0500003c0500003c0500003c05000031
:1003c8003c0500003c0500003c0500003c05000021
:1003d8003c0500003c0500003c0500003c05000011
:1003e8003c0500003c0500003c0500003c05000001
:0803f8003c0500003c0500007b
:020000040000fa
:1042e800400a0000245600004e52000052470000c9
:1042f8002c300000372c000031300000302a00003c
:0c4308005858000025660000000000006e
:020000040000fa
:104314000200fa00004f78000000000095118000b0
:104324000410200004826200e00f5200fbff320000
:104334008411800066026200e60f520004003a0015
:104344009e4278000582fb00a41188000300370018
:104354009e4278000582fb00a41188000080fa00c8
:10436400000006000e00fa00600798000002eb004f
:10437400040f78006e0290009442780044c2b300a7
:1043840084cf52005c003a006e0290000402e80000
:104394009442780064c5b30084cf520056003a00ba
:1043a4006e0290000482e80094427800e4c4b300f2
:1043b40084cf520050003a006e0290006302420023
:1043c4009442780094c5b30084cf52004a003a0066
:1043d4006e0290006402420094427800d4c4b30098
:1043e40084cf520044003a006e02900065024200fd
:1043f4009442780024c5b30084cf52003e003a00b2
:104404006e0290006602420094427800c4c2b30077
:1044140084cf520038003a006e0290000406b000c7
:1044240014427800244798006e0290001406b000ed
:1044340014427800344798006e0290002406b000bd
:1044440014427800444798006e0290003406b0008d
:1044540014427800544798006e0290004406b0005d
:1044640014427800644798006e0290005406b0002d
:1044740014427800744798006e0290006406b000fd
:1044840014427800044f98006e0290007406b00045
:1044940014427800144f98006e0290008406b00015
:1044a40014427800244f98006e0290009406b000e5
:1044b40014427800344f98000002eb00040f780097
:1044c400060037000e82e8001e0242001442780003
:1044d400044078008eff07001e0fe8001e027800db
:1044e400e90f5200f7ff3400a0c0b30088ff0700b3
:1044f400d0c0b30086ff07000080fa000000060069
:104504001600fa00200f98000002eb00040f780058
:104514002e0a90009442780044c2b30084cf520023
:1045240077003a002e0a90000402e80094427800d2
:1045340064c5b30084cf520071003a002e0a900083
:104544000482e80094427800e4c4b30084cf5200ab
:104554006b003a002e0a90006302420094427800f5
:1045640094c5b30084cf520065003a002e0a90002f
:104574006402420094427800d4c4b30084cf520051
:104584005f003a002e0a90006502420094427800cf
:1045940024c5b30084cf520059003a002e0a90007b
:1045a4006602420094427800c4c2b30084cf520031
:1045b40053003a002e0a90001442780024479800d1
:1045c4002e0a90000402e800144278003447980050
:1045d4002e0a90000482e8001442780044479800b0
:1045e4002e0a900063024200144278005447980057
:1045f4002e0a900064024200144278006447980036
:104604002e0a900065024200144278007447980014
:104614002e0a90006602420014427800044f98006b
:104624002e0a9000b406b00014427800144f98008b
:104634002e0a9000c406b00014427800244f98005b
:104644002e0a9000d406b00014427800344f98002b
:104654002e0a9000e406b00014427800444f9800fb
:104664002e0a9000f406b00014427800544f9800cb
:104674002e0a90000407b00014427800644f98009a
:104684002e0a90001407b00014427800744f98006a
:104694002e0a90002407b0001442780004579800b2
:1046a4002e0a90003407b000144278001457980082
:1046b4002e0a90004407b000144278002457980052
:1046c4000002eb00040f7800060037000e82e800b9
:1046d4001e02420014427800044078000cff0700d8
:1046e4001e0fe8001e027800f00f5200f7ff34009e
:1046f400a0c0b30006ff0700d0c0b30004ff07004a
:104704000080fa00000006003a00fa00201f98001a
:10471400321f9800431f98000002eb00040f78003a
:10472400960220000e0343003e1a9000ce1a900019
:10473400849fbe0064182a00841f78000600780055
:10474400c9f30700e68757002e1a900094427800b8
:1047540044c2b30084cf5200b8003a002e1a90002d
:104764000402e8009442780064c5b30084cf520088
:10477400b2003a002e1a90000482e80094427800b5
:10478400e4c4b30084cf5200ac003a002e1a900067
:10479400630242009442780094c5b30084cf52006f
:1047a400a6003a002e1a9000640242009442780057
:1047b400d4c4b30084cf5200a0003a002e1a900053
:1047c400650242009442780024c5b30084cf5200ad
:1047d4009a003a002e1a9000660242009442780031
:1047e400c4c2b30084cf520094003a002e1a900041
:1047f40014427800244798002e1a90000402e8001e
:1048040014427800344798002e1a90000482e8007d
:1048140014427800444798002e1a90006302420024
:1048240014427800544798002e1a90006402420003
:1048340014427800644798002e1a900065024200e2
:1048440014427800744798002e1a900066024200c1
:1048540014427800044f98002e1a9000b406b00059
:1048640014427800144f98002e1a9000c406b00029
:1048740014427800244f98002e1a9000d406b000f9
:1048840014427800344f98002e1a9000e406b000c9
:1048940014427800444f98002e1a9000f406b00099
:1048a40014427800544f98002e1a90000407b00068
:1048b40014427800644f98002e1a90001407b00038
:1048c40014427800744f98002e1a90002407b00008
:1048d40014427800045798002e1a90003407b00050
:1048e40014427800145798002e1a90004407b00020
:1048f400144278002457980044c3b30034579800f6
:104904002e1a90000406b000144278004457980010
:104914002e1a90001406b0001442780054579800e0
:104924002e1a90002406b0001442780064579800b0
:104934002e1a90003406b000144278007457980080
:104944002e1a90004406b00014427800045f9800c8
:104954002e1a90005406b00014427800145f980098
:104964002e1a90006406b00014427800245f980068
:104974002e1a90007406b00014427800345f980038
:104984002e1a90008406b00014427800445f980008
:104994002e1a90009406b00014427800545f9800d8
:1049a40044c3b300645f98001e6a9000745f98006b
:1049b4002e6a9000046798003e6a9000146798007d
:1049c4004e6a9000246798005e6a900034679800ed
:1049d4006e6a9000446798007e6a9000546798005d
:1049e4000e729000646798001e72900074679800bd
:1049f4002e729000046f98000002eb00040f780000
:104a0400060037000e82e8001e02420014427800bd
:104a1400044078003efe07001e0fe80064022000f8
:104a24009e027800848f5200f6ff3400a0c0b300c9
:104a340037fe0700d0c0b30035fe07000080fa003f
:104a4400000006001000fa00700798006022b80009
:104a5400048fbe007e0290009442780044c2b300ea
:104a640084cf520051003a007e0290000402e80014
:104a74009442780064c5b30084cf52004b003a00de
:104a84007e0290000482e80094427800e4c4b300fb
:104a940084cf520045003a007e0290006302420037
:104aa4009442780094c5b30084cf52003f003a008a
:104ab4007e0290006402420094427800d4c4b300a1
:104ac40084cf520039003a007e0290006502420011
:104ad4009442780024c5b30084cf520033003a00d6
:104ae4007e0290006602420094427800c4c2b30081
:104af40084cf52002d003a007e0290000406b000dc
:104b040014427800444798007e0290001406b000d6
:104b140014427800544798007e0290002406b000a6
:104b240014427800644798007e0290003406b00076
:104b340014427800744798007e0290004406b00046
:104b440014427800044f98007e0290005406b0008e
:104b540014427800144f98007e0290006406b0005e
:104b640014427800244f98007e0290007406b0002e
:104b740014427800344f98007e0290008406b000fe
:104b840014427800444f98007e0290009406b000ce
:104b940014427800544f98006402470004007800df
:104ba400a8f207000002be00048fbe001e02be0071
:104bb4000400be000080fa00000006001400fa00a1
:104bc400881f7800000f9800110f980084002000bf
:104bd400140798000e0890009e08900041f007000a
:104be4000002be000402780004f0a7000402ea00f8
:104bf4002407980018c0b3006011b8000e08900094
:104c04009e08900033f0070000027800e00f520085
:104c1400010035000044eb00e04f54000500320071
:104c24002e029000e90f520002003400a40020007c
:104c34001407980018c0b3006011b8000e08900063
:104c44009e08900023f0070000027800e00f520055
:104c5400010035000044eb00e04f54000500320031
:104c64002e029000e90f520002003c009400200044
:104c740014079800660347000e0a90009e0a9000ed
:104c8400849fbe0064182a00841f78000600780000
:104c940075f20700e68757000002eb00040f780066
:104ca40006003700660247001e02420014427800e4
:104cb4000440780096fd07001e0fe8001e029000d5
:104cc4009e027800848f5200f6ff3500a0c0b30026
:104cd4008ffd0700d0c0b3008dfd07004f0478009e
:104ce4000080fa00000006000200fa00000f7800bd
:104cf4001e027800144278000482fb00040078004d
:104d040050f207000002be000400be000080fa005a
:104d1400000006000000fa000080fa00000006000f
:104d24000c00fa00889fbe00a49b20004407980052
:104d34000002eb0034079800140037002548800077
:104d440034488000848f5200150032003e029000e7
:104d5400ce0290000482420036488000458820003c
:104d64008502430095427800054a78003448800063
:104d74008402e800f40720000482620034488800ba
:104d84003e0290000402e80034079800be0290003e
:104d9400f4072000848f5200e8ff3400010037003c
:104da400000000003e029000ce0290000482420007
:104db4008042eb00054a7800a09b200021ff0700f9
:104dc4000002be00844d8800954d8800844d80000b
:104dd400954d800002002000e33b24000400be0047
:104de400aaf007000002be000403be00e4518000e4
:104df400f55180000401be000600be0058ef070014
:104e04000002be00a44d8800b54d8800a44d80006a
:104e1400b54d80000401be00a09b20003afe0700af
:104e2400a44d8000b54d800018c0b3006011b800d7
:104e34000400be00a9ef070000027800e00f520052
:104e440001003d000044eb00284f98002e4a9000da
:104e5400614262000482fb00610262004b22dd00b9
:104e640066168000f57f2f0085026300050272003c
:104e740064168800a44d8000b54d800018c0b300ae
:104e84006011b8000400be0092ef07000002780031
:104e9400e00f5200010035000044eb00e04f5400e5
:104ea4003b003200a44d8000b54d800005f0a20007
:104eb4000400be00c7ef07000002be0014079800fc
:104ec400250798001e009000ae00900050020700d5
:104ed40000427800e04f520006003a001e009000a5
:104ee400ae0090001a02070000427800e04f520022
:104ef400040032006022b8001407980025079800c7
:104f04000800370002002000037824001e009000ef
:104f1400ae009000b7ef07000002be00140798002f
:104f24002507980018c0b3006011b8001e00900057
:104f3400ae00900067ef070000027800e00f520017
:104f4400010035000044eb00e04f5400090032003a
:104f54001e029000ae02900005f0a2000400be0004
:104f640081ef07000002be00040278000402ea0098
:104f7400050037001e009000ae0090007aef070095
:104f84000002be0004027800040f780039003700e4
:104f9400a44d8000b54d80000400be008def0700d5
:104fa4000002be0014079800250798001e00900018
:104fb400ae0090001602070000427800e04f520055
:104fc40006003a001e009000ae009000e0010700c9
:104fd40000427800e04f5200040032006022b80022
:104fe40014079800250798000800370002002000e5
:104ff400037824001e009000ae0090007def0700af
:105004000002be00140798002507980018c0b300da
:105014006011b8001e009000ae0090002def070054
:1050240000027800e00f5200010035000044eb005c
:10503400e04f5400090032001e029000ae029000be
:1050440005f0a2000400be0047ef07000002be0006
:10505400040278000402ea00050037001e009000f4
:10506400ae00900040ef07000002be00040278008a
:10507400040f7800d4f920009e027800848f520037
:1050840003003e001e027800c44d88000200370071
:10509400d4f92000c44d8800e8518000f951800003
:1050a400844d8000954d80000200200023382400a8
:1050b4000400be00f5ef07000002be000401be00bc
:1050c4000800be00a6ee07000002be00e4518800fe
:1050d400f5518800c44d8000c40e88004f04be0002
:1050e4000080fa00000006000200fa00000f7800b9
:1050f4001e027800e00f520003003200e10f52005c
:10510400030032000400370002ff070002003700ea
:1051140003ff0700000000000080fa000000060002
:105124001200fa00400020006d010700c2082000b0
:105134008000eb00009b200044f1070042002000a7
:105144008000eb00c0a3200040f10700040220000f
:10515400440e880064002000540e88000002eb0016
:10516400640e880014002000740e880004082000d7
:10517400840e8800f47c2000240e8800840c200017
:10518400340e880004002800040e8800d502a8000c
:1051940064052000c411880084002800841188005c
:1051a40004402200941188000002eb00544c880053
:1051b4000002eb00444c88009405800004c0a00069
:1051c40004d0a10004e0a1009405880087e0a900b0
:1051d40097e0a8000002eb00744d88000002eb0089
:1051e400644d8800940580000480a0000490a10010
:1051f40004a0a1009405880087c0a90097c0a80056
:105204006202470065172a000f000900355a78002a
:1052140064052000441188008400280004118800db
:1052240004402200141188002041200001002000c5
:10523400fe0107000002eb00040f78000c003700a9
:105244000000000015118000042020000482620088
:10525400e00f5200fbff3a000e82e8001e024200fb
:10526400144278000482fb00241188001e0fe80019
:105274001e027800ef0f5200f1ff3600000000001c
:10528400151180000410200004826200e00f520017
:10529400fbff32000002eb000411880064052000cb
:1052a400441188008400280004118800044022006e
:1052b400141188000002eb00144488000002eb0083
:1052c40004448800540580000400a0000410a100d8
:1052d4000420a100540588008580a9009580a800b9
:1052e4000002eb00344888000002eb0024488800e8
:1052f4004405800004c0a00004d0a00004e0a10084
:10530400440588008560a9009560a8000080fa0023
:04531400000006008f
:020000040000fa
:105318005c0a00000800000000000000000800000f
:10532800080100000000000008090000a8000000b3
:1053380000000000440a00001800000000000000ff
:10534800b00900009400000000000000640a00009a
:1053580002000000000000008a0c00001800000095
:1053680002000000286e75006c6c290000303100c6
:1053780032333400353637003839610062636400ef
:1053880065660000c60b0000a000000002000000d7
:10539800010000000000000000000a0000000000fa
:1053a8000000000000640000000000000000000091
:1053b800e8030000000000000000100027000000c3
:1053c8000000000000a086000100000000000000ae
:1053d80040420f0000000000000080009698000086
:1053e800000000000000e100f505000000000000da
:1053f80000ca9a003b00000000000000e40b5400c3
:10540800020000000000e8007648170000000000d5
:105418000010a500d4e8000000000000a0724e00b3
:1054280018090000000040007a10f3005a0000003c
:105438000080c600a47e8d000300000000c16f003c
:10544800f2862300000000008a5d780045630100b1
:1054580000006400a7b3b600e00d000000e8890072
:105468000423c7008a000000660a0000b00000009c
:10547800020000000000000000000000f03f0000f3
:1054880000000000000024004000000000000000b0
:105498000059400000000000000040008f4000005c
:1054a800000000000088c300400000000000000069
:1054b8006af8400000000000008084002e410000cf
:1054c80000000000d01263004100000000008400ca
:1054d800d7974100000000000065cd00cd410000d5
:1054e800000020005fa002004200000000801d00b4
:1054f800af1544000000000040593e002946000056
:10550800000000000000f0007f0000000000000024
:1055180000f07f000000000000000000f07f0000a5
:10552800000000000000f0007f0000000000000004
:1055380000f07f000000000000000000f07f000085
:10554800000000000000f0007f00000000000000e4
:1055580000f07f000000000000000000f07f000065
:10556800160b0000b0000000020000000000000060
:1055780000000000f03f00000000a0009999b90069
:105588003f0000000040e1007a843f000000000076
:10559800e04d6200503f00000000e000e2361a00d3
:1055a8003f0000000080b500f8e43e000000000065
:1055b800a0f7c600b03e00000000a000f2d77a00b5
:1055c8003e00000000e08e0079453e00000000002b
:1055d800e00b2e00113e00000000e000df7cdb0045
:1055e8003d0000000000a1009cc73b000000000037
:1055f800004c4800b439000000000000206ca100f5
:10560800370000000000000000000000000000005b
:105618000000000000000000000000000000000082
:105628000000000000000000000000000000000072
:105638000000000000000000000000000000000062
:105648000000000000000000000000000000000052
:105658000000000000000000660c000024000000ac
:1056680002000000a60c000000a60c0009000000c3
:1056780000020000a80c000000a80c000e020100a7
:105688000000000000000000000000000602020008
:1056980000000000a20c0000020000000200000050
:1056a800660c0000a40c00000200000000000000ce
:1056b800a60c00000200000000000000a80c00007a
:1056c8000200000000000000aa0c00000200000018
:0c56d800020000000100000000000000c3
:020000040000fa
:1056e4000200fa00000f7800ab0007000002be00c1
:1056f4006452880075528800c20007000002be0090
:10570400c4528800d55288005d0007000002be0024
:105714002452880035528800740007000002be003d
:105724008452880095528800780007000002be0069
:1057340044528800555288008f0007000002be00c2
:10574400a4528800b55288000080fa0000000600c8
:105754000400fa00008fbe002452800035528000fd
:105764000401be001e00be005aed070000027800ce
:10577400e00f52000800320044528000555280006d
:105784000401be001e00be0052ed070000027800b6
:10579400e00f520002003a0014c0b30001003700c9
:1057a4000042eb00044078000080fa00000006008c
:1057b4000400fa00008fbe008452800095528000dd
:1057c4000401be001e00be0042ed07000002780086
:1057d400e00f520008003200a4528000b55280004d
:1057e4000401be001e00be003aed0700000278006e
:1057f400e00f520002003a0014c0b3000100370069
:105804000042eb00044078000080fa00000006002b
:105814000400fa00008fbe001e01be001e00be0080
:10582400c5ed070000027800e00f520002003200cc
:1058340014c0b300010037000042eb0004407800bc
:105844000080fa00000006000400fa00008fbe0089
:105854001e01be001e00be00b7ed07000002780066
:10586400e00f52000200320014c0b3000100370000
:105874000042eb00044078000080fa0000000600bb
:105884000e00fa0004022000240798006022b800e9
:10589400048fbe00ae02900004022000848f5200e8
:1058a40004003a00110007000002be00048fbe008d
:1058b4000a0037000400200005ff27005407980061
:1058c400650798006022b8003407980045079800df
:1058d4003e029000ce029000048fbe001e02be0065
:1058e4000400be000080fa00000006000400fa0074
:1058f4000400200005f82700048fbe001e02be002d
:105904000400be000080fa00000006000e00fa0049
:1059140004022000240798006022b800048fbe000f
:10592400ae02900004022000848f520004003a006a
:10593400110007000002be00048fbe000a003700f9
:105944000400200005ff2f00540798006507980005
:105954006022b80034079800450798003e02900082
:10596400ce029000048fbe001e02be000400be00e2
:105974000080fa00000006000400fa000400200081
:1059840005f82f00048fbe001e02be000400be00f6
:105994000080fa00000006000e00fa000402200055
:1059a400240798006022b800048fbe00ae02900065
:1059b40004022000848f520004003a001100070002
:1059c4000002be00048fbe000a003700040020005d
:1059d40085ff2f0054079800650798006022b800df
:1059e40034079800450798003e029000ce029000cc
:1059f400048fbe001e02be000400be000080fa0038
:105a0400000006000400fa006022b800048fbe0003
:105a14000400200005fc2f00048fbe001e02be00ff
:0c5a24000400be000080fa000000060034
:020000040000fa
:105a3000f03fb1000180b10006003500ee0309001f
